S01D0000536E6F774865696768744D6561737572656D656E742E7372656381
S113000074C00000A2C00000A0C00000ACC3000087
S11300109CC000009AC0000098C0000096C0000078
S113002094C0000092C0000090C000008EC0000088
S11300308CC000008AC0000088C0000086C0000098
S113004084C0000082C0000080C00000BFC3000064
S11300507CC000007AC0000078C0000076C00000B8
S113006074C000005DC2000070C000006EC00000DB
S11300706CC000006AC0000068C0000066C00000D8
S113008064C0000062C0000060C000005EC00000E8
S11300905CC000005AC0000058C0000056C00000F8
S11300A054C0000052C0000050C000004EC0000008
S11300B04CC000004AC0000048C0000046C0000018
S11300C044C0000042C0000040C000003EC0000028
S11300D03CC000003AC0000038C0000036C0000038
S11300E034C00000CA01D410F51211241FBECFEF92
S11300F0D1E2DEBFCDBF00E00CBF14E0A0E0B2E06F
S1130100EAE3FAE200E00BBF02C007900D92AC38BC
S1130110B107D9F726E0ACE8B4E001C01D92AB3FCB
S1130120B207E1F710E0C5E7D0E000E006C0219790
S11301300109802FFE010E943413C237D10780E0E9
S11301400807A9F74CD20C941B155ACFCF92DF9213
S1130150FF920F931F93CF93DF93C42F6901862FD0
S1130160880F88D1F82E811112C08C2FA8D110E0ED
S11301700115110551F0E6010C0D1D1D89919FD14A
S1130180811108C0C017D107C9F7C1D105C0FF2428
S1130190F39402C0FF24F3948F2DDF91CF911F912C
S11301A00F91FF90DF90CF9008950F93CF93DF933B
S11301B0EC01188282E6898384E08A8388E08B8359
S11301C01C8254D101E020E030E040E06981CE019E
S11301D0BDDF1882DF91CF910F910895BF92CF9226
S11301E0DF92EF92FF920F931F93CF93DF93D42F5D
S11301F06901C62FCC0F8C2F3DD1811122C08D2FC8
S11302005ED185D181E08C0F35D1B82E81111CC00F
S1130210013069F0E601E02EF12C81E0E81AF108E2
S1130220EC0CFD1C5ED18993CE15DF05D9F710E0E7
S113023001501109E601C00FD11F5ED1888367D137
S113024005C0BB24B39402C0BB24B3948B2DDF91AF
S1130250CF911F910F91FF90EF90DF90CF90BF90BF
S11302600895EF92FF920F93CF93DF931F921F9203
S1130270CDB7DEB77C01FC0110829C012E5F3F4F9D
S113028001E040E0618162DF9E012F5F3F4F41E06A
S1130290F7016181C701A2DF898180FF0CC001E001
S11302A09E012F5F3F4F41E0F7016181C70196DF57
S11302B0898180FDF4CF02E09E012F5F3F4F4FE81C
S11302C0F7016181C7018ADF898190E0982F88272F
S11302D02A8131E0F7013083820F911D0F900F9036
S11302E0DF91CF910F91FF90EF900895BFD085E3F8
S11302F08A95F1F700005A9AE9E6F0E0808180627D
S11303008083EA9A0895CF9380EDB4D08EE0D7D05D
S1130310FED081EDAFD0F0D0C82FF9D0CC2351F06E
S113032080EDA8D08EE0CBD08C2F8160C8D08EE039
S1130330C6D0EDD0CF910895CF9380ED9BD08EE0C1
S1130340BED0E5D081ED96D0D7D0C82FE0D0CC2355
S113035051F080ED8FD08EE0B2D08C2F8E7FAFD055
S11303608EE0ADD0D4D0CF910895CF9380ED82D0DC
S11303708FE0A5D0CCD081ED7DD0BED0C82FC7D022
S113038080ED78D08FE09BD08C2F8C7F98D0BFD01D
S1130390CF9108958CE894E0A9CF08954BE050E004
S11303A060E070E00C94F6140895FC011182108250
S11303B01282168215821482138217821086128684
S11303C01186ECCF08954BE050E060E070E00C94AF
S11303D0E1140895CF93DF93EC011C861B86611111
S11303E0E4DFCE01F0DFDF91CF910895FC01858534
S11303F096850C9417150895FC0125853685C90149
S11304000296968785870C9417150895FC01148627
S113041013862CEF30E03687258781E00895FC01B0
S1130420858596850C94F1140895FC0125853685FF
S1130430C9010296968785870C94F1140895FC01EE
S113044083859485019694878387258536852E5FD9
S11304503F4F36872587218532858217930720F001
S11304601486138680E0089581E0089588E48093DB
S1130470B8000895ECEBF0E0108294EA9083908148
S11304809923ECF79091B900987F9830A1F4809368
S1130490BB0084E88093BC00ECEBF0E0808188230F
S11304A0ECF79091B900987F983139F081E090345D
S11304B029F480E0089581E0089580E00895809310
S11304C0BB0084E88093BC00ECEBF0E080818823DF
S11304D0ECF79091B900987F81E0983209F480E0BC
S11304E0089584EC8093BC00ECEBF0E080818823D9
S11304F0ECF78091BB00089584E88093BC00ECEB9A
S1130500F0E080818823ECF78091BB00089584E9B2
S11305108093BC00ECEBF0E0808184FDFDCF089576
S11305201F920F920FB60F9211248F938091C600E1
S113053080938E0480918E04809588B98F910F905A
S11305400FBE0F901F90189588E090E09093C5001F
S11305508093C400E2ECF0E0808186608083E1EC6B
S1130560F0E08081886980830895E0ECF0E0908178
S113057095FFFDCF8093C60008951F93CF93DF931B
S1130580EC01162F8881882329F02196EEDF8991CA
S11305908111FCCF112311F0812FE7DFDF91CF917F
S11305A01F910895CF93DF93CDB7DEB72B970FB686
S11305B0F894DEBF0FBECDBF2AE0AE014F5F5F4FA0
S11305C00E94891460E0CE010196D7DF2B960FB606
S11305D0F894DEBF0FBECDBFDF91CF910895CF93C6
S11305E0DF93CDB7DEB7A0970FB6F894DEBF0FBE8A
S11305F0CDBF7894FE0131968DE0DF011D928A957E
S1130600E9F780E6C82E8B831C8283E0E82E8D8375
S11306101E8281E08C878D87A980BA80D12CF12C31
S11306200F81188529853A854B8551E061E0CE011B
S11306300E960E94D810CE010E960E94061260E01B
S1130640CE014296C7DECE014296AFDE8CE291E047
S11306509C8F8B8F84E893E09B8B8A8B86EE8A8FAA
S113066084EF91E0988F8F8B8AE08C8B86E090E00A
S11306709E8B8D8BCE01429691DE8B8D9C8D880F47
S1130680991F880F991FEDB7FEB7E81BF90B0FB63A
S1130690F894FEBF0FBEEDBF0DB71EB70F5F1F4F1F
S11306A02DB73EB72F5A3F4FADB7BEB7AF5FBA4F66
S11306B061E042EC51E082EC91E0EE24E394F90134
S11306C0E055F1099183808353834283662331F09B
S11306D0863475E0970738F48D9605C0833C71E045
S11306E0970708F08D973496E217F30759F76E25AC
S11306F04634E5E05E0710F4445C5F4F205B3F4FF7
S1130700A217B307E1F6CE01429680DE2CE231E077
S11307103C8F2B8F1E8E1D8E882399F0D8016D91EE
S11307207C91CE01429662DEF80162817381CE0132
S1130730429662DECE01429682DE0C5F1F4F81112B
S1130740EDCF80E994E00E94F90F83B7817F846044
S113075083BF8D899E8990938D0480938C048CE84B
S113076094E0D1DDFFCF1F920F920FB60F921124A8
S11307700BB60F922F933F934F935F936F937F9397
S11307808F939F93AF93BF93EF93FF93DDDE40E08E
S113079065E470E080E090E005DF8CE894E0E5DD5E
S11307A08CE894E0C9DDFF91EF91BF91AF919F91E7
S11307B08F917F916F915F914F913F912F910F9006
S11307C00BBE0F900FBE0F901F9018951F920F92A3
S11307D00FB60F9211240BB60F922F933F934F93A2
S11307E05F936F937F938F939F93AF93BF93EF9395
S11307F0FF9380E994E00E94CA0FFF91EF91BF91AB
S1130800AF919F918F917F916F915F914F913F91A4
S11308102F910F900BBE0F900FBE0F901F90189545
S1130820CF93DF93EC018DE292E00E94210E62E708
S1130830888199810BD7811108C080E492E00E94DD
S1130840210E0E94240C81E001C080E0DF91CF9151
S113085008956F927F928F929F92AF92BF92CF92A0
S1130860DF92EF92FF920F931F93CF93DF93CDB755
S1130870DEB72B970FB6F894DEBF0FBECDBF5C0179
S11308808B018DB69EB6FB0101900020E9F73197EC
S1130890CF01861B970B2BE0E2EFF3E0DE0111960C
S11308A001900D922A95E1F7F501228133816217B7
S11308B07307A1F19E012F5F3F4F6901F901019078
S11308C00020E9F73197AF01421B530BFB01019064
S11308D00020E9F73197E61BF70B4E0F5F1F4F5FC0
S11308E05F4F8DB79EB7841B950B0FB6F8949EBFD0
S11308F00FBE8DBFEDB7FEB731967F016E2E7F2CF4
S11309006AEA73E0CF010E947014B601C7010E9425
S11309106514B801C7010E94651410C02DB73EB715
S1130920281B390B0FB6F8943EBF0FBE2DBF8DB7F1
S11309309EB70196682E792E0E94651481E592E097
S11309400E94210E62E7F501808191817FD68FE6B6
S113095092E00E94210E6091E8067091E906809170
S1130960EA069091EB067BD786E992E00E94210E7D
S1130970862D972D0E94520D8DE0E2D78AE0E0D7B4
S11309808DEB92E00E94210E5FD785EE92E00E94EB
S1130990210E0FB6F8949EBE0FBE8DBE2B960FB6D9
S11309A0F894DEBF0FBECDBFDF91CF911F910F91A1
S11309B0FF90EF90DF90CF90BF90AF909F908F907B
S11309C07F906F900895CF93DF93EC0129DF81111D
S11309D019C082E093E00E94210E888199810E94CF
S11309E0210E63E68881998131D62ED789E193E07F
S11309F00E94210E6A817B81CE012BDF81E393E08B
S1130A000E94210EDF91CF910895CF93DF93EC01E3
S1130A10798368835B834A831C821D821E821F82C2
S1130A20188619861A861B8688E493E00E94210E94
S1130A30888199810E94210ECE01C5DFDF91CF917B
S1130A40089546E753E064E074E0DFCF0895109220
S1130A50C00444ED54E00C94A80D0895CF92DF92A5
S1130A60EF92FF920F931F93CF93DF930091E406CD
S1130A701091E5062091E6063091E7060617170760
S1130A802807390731F16B017C018091C004813062
S1130A9041F41092C00444ED54E0C901B8010E942D
S1130AA0A80DCEEDD6E08E819F81A885B98580936F
S1130AB0BC049093BD04A093BE04B093BF0444ED62
S1130AC054E0C701B6010E94E80DCE82DF82E886B9
S1130AD0F98681E0DF91CF911F910F91FF90EF9004
S1130AE0DF90CF900895CF92DF92EF92FF920F9311
S1130AF01F93CF93DF936B017C01C42FD0E00CEBE9
S1130B0014E0C701B6016D0F711D811D911DA6DF93
S1130B1030918F04E4EDF4E080E090E02081222322
S1130B2011F0253E89F43F5F3C130FC096958795DD
S1130B30929582958F7089279F7089278093EE06FE
S1130B4010928F0481E00FC030E08096B09681153A
S1130B5022E0920719F730938F04DF5FF80185894B
S1130B60D81778F280E0DF91CF911F910F91FF9019
S1130B70EF90DF90CF9008950F931F939B01AC01EA
S1130B802250310941095109ECEBF4E0A589B0E0A8
S1130B900E942A130585168527853089600F711FE9
S1130BA0821F931F1F910F9108950F931F93ECEBD6
S1130BB0F4E00585168527853089601B710B820B4F
S1130BC0930B258930E040E050E00E94F912CA01FD
S1130BD0B9016E5F7F4F8F4F9F4F1F910F91089503
S1130BE00F931F93EEEDF6E0DC01A851BB4F4D913E
S1130BF05C9160E070E0BA0155274427DC01A25102
S1130C00BB4F0D911C9120E030E0402B512B622B07
S1130C10732B418B528B638B748BDC01A051BB4FC4
S1130C208D919D910D90BC91A02D82879387A4876F
S1130C30B5871F910F9108952F923F924F925F9223
S1130C406F927F928F929F92AF92BF92CF92DF92D8
S1130C50EF92FF920F931F93CF93DF932B013C01ED
S1130C606A01212C44ED54E053014201820C911C91
S1130C70A11CB11CC501B401ABD78092E4069092CB
S1130C80E506A092E606B092E706C4EDD4E000E0E3
S1130C9010E08881882309F45AC09B85903119F0AB
S1130CA0903209F045C0853E09F442C0312C912CA4
S1130CB0C80184549B4F7C01F701E90DF11D808C20
S1130CC090E2891202C0939415C0F601E30DF11D60
S1130CD080818E3229F487E0891578F433940AC030
S1130CE090E00E945D14282D30E02817390729F47C
S1130CF0339493949AE09915F8F68BE0981218C0FF
S1130D00CEEDD6E0C80196958795929582958F7021
S1130D1089279F708927888BC80162DF8E819F8114
S1130D20A885B9858D8B9E8BAF8BB88F81E00FC062
S1130D30005E1F4FA096011592E0190709F0A9CF94
S1130D4023948091D104281608F48CCF80E0DF919D
S1130D50CF911F910F91FF90EF90DF90CF90BF90B4
S1130D60AF909F908F907F906F905F904F903F9047
S1130D702F9008952F923F925F926F927F928F925D
S1130D809F92AF92BF92CF92DF92EF92FF920F9316
S1130D901F93CF93DF9300D01F92CDB7DEB79C8310
S1130DA08B83562E49015A016701780181E08093B3
S1130DB0C0040091EE0680E2089F80011124F8012E
S1130DC0EC52FB4FFA83E983CF01459611928E17BB
S1130DD09F07E1F769807A80312C10E0689422241F
S1130DE025F8F3012082183070F5EB81FC81E30DC6
S1130DF0F11D80818E3251F190E00E945D14F30167
S1130E008083339423C03394EB81FC81E30DF11D83
S1130E108081882331F090E00E945D14F301808387
S1130E203394FFEF6F1A7F0A1F5F1B30D1F6E981FD
S1130E30FA815386B58AA48A938E828EC48ED58E07
S1130E40E68EF78E06C01830F9F6DDCF183049F774
S1130E50DACF0F900F900F900F90DF91CF911F91E9
S1130E600F91FF90EF90DF90CF90BF90AF909F9045
S1130E708F907F906F905F903F902F900895CF92C6
S1130E80DF92EF92FF920F931F932091D2042031AF
S1130E9081F56B017C01CC0CDD1CEE1CFF1CB70141
S1130EA0A601032E39E076956795579547953A95AF
S1130EB0D1F7302D8091CD049091CE04A091CF0430
S1130EC0B091D0048A019B01080F191F2A1F3B1FF0
S1130ED0C901B801C3DD11E0D122EE24FF24C6010B
S1130EE04896FC01E454FB4F6081718180E090E0FE
S1130EF033C06B017C01CC0CDD1CEE1CFF1CCC0C44
S1130F00DD1CEE1CFF1CB701A601032E39E076950B
S1130F106795579547953A95D1F7302D8091CD0433
S1130F209091CE04A091CF04B091D0048A019B018A
S1130F30080F191F2A1F3B1FC901B8018FDD11E0DB
S1130F40D122EE24FF24C6014896FC01E454FB4F51
S1130F5060817181828193811F910F91FF90EF9045
S1130F60DF90CF900895CF92DF92EF92FF920F938C
S1130F701F93CF93DF938C01C090C104D090C2041F
S1130F80E090C304F090C404C114D104E104F1045A
S1130F9021F58091D2048031C1F4F12CCCEBD4E062
S1130FA089859A85AB85BC85BC01CD016F0D711D0A
S1130FB0811D911DA80140DE8130B1F18D89F80EAB
S1130FC08FE18F1568F780E02FC0C090C504D090E2
S1130FD0C604E090C704F090C804CCEBD4E00CC085
S1130FE0C701B601C9DDA80127DE8130E9F0C701D8
S1130FF0B60145DF6B017C0188EFC8168FEFD80678
S1131000E8068FE0F80618F08E89803261F088EFE8
S1131010C8168FEFD806E104F10410F38E898031ED
S1131020F9F680E001C080E0DF91CF911F910F912C
S1131030FF90EF90DF90CF9008952F923F924F92C0
S11310405F926F927F928F929F92AF92BF92CF9254
S1131050DF92EF92FF920F931F93CF93DF931B01C5
S11310602C018ADDE4EDF6E060837183828393834F
S11310708091D10490E09583848372016101C0E082
S1131080D0E08F010F2EFCEB6F2EF4E07F2EF02DBD
S1131090C701B601F4DE460157012FEF821A920A06
S11310A0A20AB20A681579058A059B05A1F4F30121
S11310B02589F80144815581FA01E20FF11D9F0150
S11310C0F8013583248321966B017C01C115F1E07D
S11310D0DF07F1F609C0C092DA06D092DB06E0928F
S11310E0DC06F092DD060EC0520141012FEF921A88
S11310F0A20AB20A8092DA069092DB06A092DC067B
S1131100B092DD06DF91CF911F910F91FF90EF9088
S1131110DF90CF90BF90AF909F908F907F906F9013
S11311205F904F903F902F9008958F929F92AF922F
S1131130BF92CF92DF92EF92FF920F931F93CF93C0
S1131140DF934B015C0105C08FEF881A980AA80A47
S1131150B80AC501B40193DE672B682B692BA1F78C
S1131160C501B40109DDE4EDF6E060837183828397
S113117093838091D10490E0958384837501640105
S1131180EFEFCE1ADE0AEE0AFE0AFFEF9F1AAF0A4D
S1131190BF0AC4EDD6E00CEB14E0C701B6016FDE64
S11311A0672B682B692B91F4F80125898C819D812B
S11311B0820F911D9D838C83FFEFCF1ADF0AEF0A04
S11311C0FF0AC814D904EA04FB0439F7DF91CF916C
S11311D01F910F91FF90EF90DF90CF90BF90AF9051
S11311E09F908F9008958F929F92AF92BF92CF92CB
S11311F0DF92EF92FF920F931F9349015A012091BE
S1131200D204203171F56B017C01CC0CDD1CEE1C89
S1131210FF1CB701A601032E39E076956795579513
S113122047953A95D1F7302D8091CD049091CE0415
S1131230A091CF04B091D0048A019B01080F191F1B
S11312402A1F3B1FC901B80109DC11E0D122EE2499
S1131250FF24C6014896FC01E454FB4F918280822E
S113126033C06B017C01CC0CDD1CEE1CFF1CCC0CD0
S1131270DD1CEE1CFF1CB701A601032E39E0769598
S11312806795579547953A95D1F7302D8091CD04C0
S11312909091CE04A091CF04B091D0048A019B0117
S11312A0080F191F2A1F3B1FC901B801D7DB11E022
S11312B0D122EE24FF24C6014896FC01E454FB4FDE
S11312C080829182A282B38281E08093C0041F91C4
S11312D00F91FF90EF90DF90CF90BF90AF909F90D1
S11312E08F9008952F923F924F925F927F928F92A8
S11312F09F92AF92BF92CF92DF92EF92FF920F93A1
S11313001F93CF93DF931F921F92CDB7DEB79A83BB
S11313108983762EC090C104D090C204E090C304A7
S1131320F090C404C114D104E104F10449F4ECEBD9
S1131330F4E0C184D284E384F4848689803119F092
S11313400CEB14E017C010E041E0C701B601610FD7
S1131350711D811D911DC7DB813009F4B5C08091D9
S1131360D104180F103280F3AFC06B017C0102C0AE
S11313706B017C01C701B601FFDB41E0B4DB8130C6
S113138009F4A2C08090E4069090E506A090E606D9
S1131390B090E706C701B60172DD683F2FEF720710
S11313A082072FE0920720F0F8012689203251F0BD
S11313B0683FFFEF7F0781059105B8F2F8012689A0
S11313C02031B1F66091D4067091D5068091D6068D
S11313D09091D706EADB1B012C019B01AC01C701EC
S11313E0B60101DF2FEF3FEF4FEF5FE0C201B10124
S11313F0FADE6091E4067091E5068091E60690912C
S1131400E70644ED54E0A4D3E4EDF6E084ED94E083
S11314101292E817F907E1F7512C0CEB14E001C024
S1131420592EE4EDF6E080819181A281B381BC0163
S1131430CD01650D711D811D911D09DB91E0950D97
S1131440F8018589581660F3E4EDF6E020803180D8
S1131450428053802092E4063092E5064092E606EC
S11314605092E706C501B401A0DB6093DA067093DD
S1131470DB068093DC069093DD0641E0C201B101F6
S113148032DB8091D8069091D9064091D104242F63
S113149030E028173907A8F4E4EDF6E0C080D180E5
S11314A0E280F38046015701840E911CA11CB11CFB
S11314B080829182A282B382821B930B9583848360
S11314C003C0C701B60131DE8091E4069091E506C0
S11314D0A091E606B091E7068093F3069093F40694
S11314E0A093F506B093F6060F2EF4EDCF2EF6E09A
S11314F0DF2EF02DF601608171818281938155DBAD
S11315009B01AC016093EF067093F0068093F106A3
S11315109093F206F6016683778380879187109211
S1131520E8061092E9061092EA061092EB06E12C06
S1131530F12C8701672D89819A811CDC6091E40676
S11315407091E5068091E6069091E70644ED54E03B
S1131550FFD2F60180819181A281B3818093E40658
S11315609093E506A093E606B093E7060F900F90DC
S1131570DF91CF911F910F91FF90EF90DF90CF906B
S1131580BF90AF909F908F907F905F904F903F90CF
S11315902F9008954F925F926F927F928F929F92B5
S11315A0AF92BF92CF92DF92EF92FF926B017C01D8
S11315B029013A016091DA067091DB068091DC061C
S11315C09091DD06A70196010EDEC414D504E6044D
S11315D0F70499F0460157018FEF881A980AA80A70
S11315E0B80AA5019401C701B601FDDD75016401C6
S11315F0481459046A047B0469F72FEF3FEF4FEF57
S11316005FE0C301B201EFDD4092DA065092DB06DF
S11316106092DC067092DD061092C0046091E406CC
S11316207091E5068091E6069091E70644ED54E05A
S11316308FD2FF90EF90DF90CF90BF90AF909F90AC
S11316408F907F906F905F904F9008950F931F93AA
S1131650CF93DF93EC01162F86DC8130C1F412376F
S113166051F50EED16E0F801618972898389948938
S1131670E4DCF801D787C6876091D4067091D5065B
S11316808091D6069091D706E9D980E019C08111DE
S113169014C01336A1F4D093ED06C093EC0662E0B7
S11316A070E080E090E041DD60E2CE011BDE81E08D
S11316B08093C00405C082E003C082E001C082E0E0
S11316C0DF91CF911F910F9108954F925F926F9286
S11316D07F928F929F92AF92BF92CF92DF92EF92BE
S11316E0FF920F931F93CF93DF93AEEDB6E0ED918E
S11316F0FC9111971296CD90DD90ED90FC9015978A
S1131700CE0EDF1EE11CF11C1A968D919D910D9059
S1131710BC91A02D8C159D05AE05BF0508F05AC0DF
S11317208090E4069090E506A090E606B090E70667
S1131730309709F059C062C01192E817F907E1F730
S113174081E08093C00410C030DA2B013C01609129
S1131750D4067091D5068091D6069091D70625DAE5
S1131760A301920117DF11C0C501B4011EDA2B01D8
S11317703C016091D4067091D5068091D606909173
S1131780D70613DAA301920105DFCEEDD6E06D8909
S11317907E898F89988D62D9E88980E2E89FF0017B
S11317A01124E051FB4FC082D182E282F382CA86C7
S11317B0DB86EC86FD868092D4069092D506A092B4
S11317C0D606B092D70681E08093C004C501B40167
S11317D045D929C06091E4067091E5068091E6063A
S11317E09091E70634D91FC0E11582E0F80708F0AC
S11317F0BBCFEC52FB4F84ED96E09ECFC501B40104
S113180061507109810991090091D4061091D5069E
S11318102091D6063091D706601771078207930787
S113182008F4B3CF91CFDF91CF911F910F91FF9027
S1131830EF90DF90CF90BF90AF909F908F907F906C
S11318406F905F904F90089540DFEEEDF6E01182C7
S11318501082128213821482158281E008958F927D
S11318609F92AF92BF92CF92DF92EF92FF920F932B
S11318701F93CF93DF934B015C0127DFCEEDD6E0BE
S113188069897A898B899C89D8DB4091D4065091E7
S1131890D5066091D6067091D7061A821B821C82E7
S11318A01D82811482E09806A104B104A8F1750197
S11318B064018E01C4EDD6E0E2E0DE1AE108F1082D
S11318C0F80182819381A481B5819E5FAF4FBF4FA0
S11318D082839383A483B5838C819D8101979D83A7
S11318E08C83892B29F04F5F5F4F6F4F7F4F0AC066
S11318F06E817F8188859985C2DA9FDB4881598111
S11319006A817B81C114F2E0DF06E104F104A0F6F0
S113191081E09822AA24BB24CB01BA019FD89092DB
S1131920DF068092DE06DF91CF911F910F91FF9029
S1131930EF90DF90CF90BF90AF909F908F900895DD
S1131940CF92DF92EF92FF920F931F93CF93DF9387
S1131950EEEDF6E020813181A9014F5F5F4F5183A5
S11319604083F901E454FB4F808F4115524009F044
S113197090C0CEEDD6E0198218828A819B81AC8119
S1131980BD819E5FAF4FBF4F8A839B83AC83BD8372
S11319906E817F818885998544ED54E0D9D04E814C
S11319A05F8168857985DB01CA010196A11DB11D9E
S11319B08E839F83A887B987E4EDF6E084819581BF
S11319C0019795838483892B09F049C00A811B817F
S11319D02C813D818A859B85AC85BD8580179107C7
S11319E0A207B30740F50CEB14E0F8011482CB0115
S11319F0BA01DBD86B017C01C4EDD6E06881798142
S1131A008A819B81D2D8A7019601C4DD6E817F8132
S1131A10888599858ADB88819981AA81BB81809395
S1131A20E4069093E506A093E606B093E70681E00A
S1131A30F801848314C0C4EDD6E06E817F8188856B
S1131A4099851DDAFADA88819981AA81BB8180930C
S1131A50E4069093E506A093E606B093E706EEED60
S1131A60F6E0428153816481758182859385A485E2
S1131A70B58584179507A607B70758F06091E40663
S1131A807091E5068091E6069091E70644ED54E0F6
S1131A909FD0DF91CF911F910F91FF90EF90DF9036
S1131AA0CF900895CF93DF93EC018881882329F0A8
S1131AB0219646DF89918111FCCF81E08093C00497
S1131AC0DF91CF9108958EBD0DB407FEFDCF08952B
S1131AD08FEF8EBD0DB407FEFDCF8EB50895289A05
S1131AE0F7CF0895FF920F931F93CF93DF93C82FDF
S1131AF0D42F152F062FF72EF2DF2898E9DF8F3F1A
S1131B00E9F78C2F8064DFDF8F2DDDDF802FDBDFB3
S1131B10812FD9DF8D2FD7DFCC2389F0C83061F036
S1131B2081E0D1DFCC3009F4D3DFCAE0D1DF8823F0
S1131B304CF4C150D9F706C087E8C5DFF6CF85E974
S1131B40C2DFF3CFDF91CF911F910F91FF900895E2
S1131B50FF920F931F93CF93DF938A012091D304B5
S1131B6023FD09C0052E59E0660F771F881F991FB2
S1131B705A95D1F7502DAB01BC0188E1B3DFF82EA3
S1131B8081111EC0A5DF8F3FE9F78EEF9CDFE801CE
S1131B901E5F899198DFC017D107D9F78FEF93DFC4
S1131BA08FEF91DFC4E194DF8F71853019F0C1505C
S1131BB0D1F707C0CC2329F092DFFF24F39401C0AE
S1131BC0F12C8F2DDF91CF911F910F91FF900895EC
S1131BD00F931F93CF93DF938A012091D30423FDA6
S1131BE009C0052E59E0660F771F881F991F5A9563
S1131BF0D1F7502DAB01BC0181E174DFC82F8111F5
S1131C0011C066DF8F3FE9F38E3F69F4E8011E5F80
S1131C105FDF8993C017D107D9F75ADF59DF5FDF38
S1131C20C1E001C0C0E08C2FDF91CF911F910F91D3
S1131C300895E0ECF0E0908195FFFDCF8093C6001D
S1131C400895CF93DF93EC018881882329F02196AE
S1131C50F0DF89918111FCCFDF91CF910895CF936B
S1131C60DF93FC0111A210A289E182A313A2A0E8D0
S1131C70B0E08C9182608C93C1E8D0E08881886167
S1131C8088838C91806A8C938FE39CE9909387007E
S1131C908093860084B1806684B98FE697E190933F
S1131CA08D0080938C00AFE6B0E08C9188608C93BB
S1131CB081E090E0918B808BDF91CF91089521E0BA
S1131CC030E0FC0131A320A310928500109284001F
S1131CD0E1E8F0E08081826080830895E1E8F0E04B
S1131CE02081287F2083FC0111A210A20895FC0109
S1131CF0118A108A6C32F1E07F0738F06D3D25E0DF
S1131D00720728F06CED75E002C06CE271E04C32B1
S1131D10E1E05E0738F04D3DF5E05F0728F04CED5B
S1131D2055E002C04CE251E0660F771F61557B4FCE
S1131D30440F551F41555B4F709389006093880091
S1131D40FC017183608350938B0040938A0053831A
S1131D504283B5CF0895EAE7F0E080818368808309
S1131D6080E480937C00808180648083808186FD10
S1131D70FDCF80917800909179000895CF93DF93FF
S1131D80CDB7DEB72C970FB6F894DEBF0FBECDBF2C
S1131D90FC01228D338D2230310579F422E134E0C7
S1131DA0358F248FCE0101960E94210560E274E0F4
S1131DB0CE0101960E9429042BC02130310581F403
S1131DC025E334E0FC01358F248FCE0101960E9477
S1131DD0210561E474E0CE0101960E94290418C033
S1131DE02330310581F424E534E0FC01358F248F60
S1131DF0CE0101960E94210562E674E0CE010196AF
S1131E000E94290405C027E734E0FC01358F248FA4
S1131E102C960FB6F894DEBF0FBECDBFDF91CF91E5
S1131E200895FC01208931892230310539F421E0FB
S1131E3030E0338F228FA2DF81E00895FC01138EFE
S1131E40128E9CDF80E008958F929F92AF92BF9292
S1131E50CF92DF92EF92FF920F931F93CF93DF9372
S1131E60CDB7DEB761970FB6F894DEBF0FBECDBF16
S1131E704C01FE0131968DE0DF011D928A95E9F750
S1131E8083E0E82E8D831E8281E08C878D8780E835
S1131E90C82E8B8384E08C83A980BA806894DD2467
S1131EA0D2F8F12C0F81188529853A854B8551E0AC
S1131EB061E0CE010E967CD1CE010E96A7D2ECE75E
S1131EC0F0E080818C7F8083EAE7F0E080818064A9
S1131ED08083808186FDFDCF809178009091790088
S1131EE0F40195A384A3ECE7F0E080818160808312
S1131EF0EAE7F0E0808180648083808186FDFDCF05
S1131F006091780070917900D40197967C936E93D8
S1131F10969794968D919C91959715969C938E93F4
S1131F20149717967C936E93169741E0CE010E9604
S1131F3020D3F40184A195A1889720F486A197A1C8
S1131F40889758F083E090E0D4015B969C938E933D
S1131F505A97C40113DF11E006C0F401138E128EE8
S1131F60C4010CDF10E0CE010E964FD2812F619692
S1131F700FB6F894DEBF0FBECDBFDF91CF911F9196
S1131F800F91FF90EF90DF90CF90BF90AF909F9014
S1131F908F900895CF93DF93EC018BA18F5F8BA378
S1131FA09AA18917F8F01BA2CE014EDF8823A1F075
S1131FB088A199A1029739F482E090E0998B888BEB
S1131FC0CE018CDE0FC082E090E099A388A380E864
S1131FD094E09D878C8706C0CE0180DE81E090E08E
S1131FE0998B888B1B8E1A8ECE01C8DEDF91CF9120
S1131FF008956F927F928F929F92AF92BF92CF92E9
S1132000DF92EF92FF920F931F93CF93DF93CDB79D
S1132010DEB7A5970FB6F894DEBF0FBECDBFE2E0E2
S1132020F1E080818061808380E994E094DEFE01A8
S113203070968DE0DF011D928A95E9F780E6C82E3F
S11320408A8B1B8A83E0E82E8C8B1D8A81E08B8F20
S11320508C8FA888B988D12CF12C0E891F89288DE2
S1132060398D4A8D51E061E0CE018296A1D0CE0136
S11320708296CCD160E0CE0101960E94EA01CE01A5
S113208001960E940602182FCE014D960E94D5009B
S1132090112309F46BC0EE24E394F12C0F2EFCE21F
S11320A06F2EF02D7724739400E914E00F2EFBE3D8
S11320B0CF2ED12CF02DA895CE0101960E940F02AF
S11320C05C01CE0101960E941502BDEDAB16B5E090
S11320D0BB0610F0A62CB72C8D3DE5E09E0710F052
S11320E0862D972DD80190962D913C91919721158D
S11320F03105E9F7AC01B501C801F9DDF8018089C2
S11321009189892B59F4F5E0FA95F1F70000D8018B
S113211050968D919C915197892BA9F3C80181DE2A
S113212081111FC084E090E0A7D25C01B701CDD338
S1132130F50101900020E9F73197D182C082B40102
S1132140C501C3D3CE014D960E9431014C01CE018D
S113215001960E941F02BFEFEB1AFB0A8111ABCF5D
S113216005C0CE01829651D180E009C0CE0182968D
S11321704CD1E2E0F1E080818F7E808381E0A596FE
S11321800FB6F894DEBF0FBECDBFDF91CF911F9184
S11321900F91FF90EF90DF90CF90BF90AF909F9002
S11321A08F907F906F90089580E994E058CD0895C2
S11321B0AF92BF92CF92DF92EF92FF920F931F9351
S11321C0CF93DF93CDB7DEB72D970FB6F894DEBF6C
S11321D00FBECDBFFC01A982BA82CB82DC82ED8224
S11321E0FE820F83188729873A87D42E4B875C8712
S11321F06D872B813C810D811E81CF80B984E9805C
S1132200FA80F182E08252836383442309F1A0E2DD
S1132210B3E011D29B01AC0160E074E284EF90E082
S1132220E8D12150310981E0E816F10409F44FC0E6
S113223024F4EF2809F4C9C0D7C082E0E816F104F9
S113224009F46FC083E0E816F10409F494C0CCC02B
S1132250A0E4B6E0F0D19B01AC0160E074E284EF4D
S113226090E0C7D12150310981E0E816F10479F1F9
S113227024F4EF2809F4B3C0B7C082E0E816F104EF
S113228009F44FC083E0E816F10409F474C0ACC04B
S1132290E2ECF0E08081980123703327220F331F92
S11322A0BB0CBB0CBB0CB22AB82ACC0CCC0CCC0C8F
S11322B0CC0CCB28C082E1ECF0E0808104701127C3
S11322C0000F111F000F111F082B00838DC03093C6
S11322D0CD002093CC00DD2029F0E8ECF0E08081F3
S11322E082608083EAECF0E08081980123703327D8
S11322F0220F331FBB0CBB0CBB0CB22AB82ACC0C6C
S1132300CC0CCC0CCC0CCB28C082E9ECF0E0808166
S113231004701127000F111F000F111F082B0083D9
S113232063C03093D5002093D400DD2029F0E0ED84
S1132330F0E0808182608083EAECF0E080819801A3
S113234023703327220F331FBB0CBB0CBB0CB22AE8
S1132350B82ACC0CCC0CCC0CCC0CCB28C082E9EC2D
S1132360F0E0808104701127000F111F000F111F6E
S1132370082B008339C03093350120933401DD20CC
S113238029F0E0E3F1E0808182608083E2E3F1E020
S11323908081980123703327220F331FBB0CBB0CA1
S11323A0BB0CB22AB82ACC0CCC0CCC0CCC0CCB2851
S11323B0C082E1E3F1E0808104701127000F111F56
S11323C0000F111F082B00830FC03093C50020930A
S11323D0C400E0ECF0E080818260808359CF3093C8
S11323E0C5002093C40054CF2D960FB6F894DEBFD9
S11323F00FBECDBFDF91CF911F910F91FF90EF9052
S1132400DF90CF90BF90AF9008950895FC01208194
S1132410318121303105E1F01CF4232B41F0089582
S11324202230310531F123303105A1F10895828143
S1132430882329F0A1ECB0E08C9180618C93838196
S11324408823C1F1E1ECF0E0808188608083089505
S11324508281882329F0A9ECB0E08C9180618C936F
S11324608381882339F1E9ECF0E0808188608083FE
S113247008958281882329F0A1EDB0E08C918061D8
S11324808C9383818823B1F0E1EDF0E08081886052
S1132490808308958281882329F0A1E3B1E08C919F
S11324A080618C938381882329F0E1E3F1E08081CA
S11324B0886080830895CF93DF93EC0140E06AE065
S11324C007D040E06DE0CE0103D0DF91CF910895B5
S11324D0FC01208131812130310599F01CF4232B3A
S11324E041F026C022303105A1F023303105C9F076
S11324F01FC0A0ECB0E09C9195FFFDCF6093C60097
S113250017C0A8ECB0E09C9195FFFDCF6093CE007E
S11325100FC0A0EDB0E09C9195FFFDCF6093D60075
S113252007C0A0EDB0E09C9195FFFDCF6093D6006D
S1132530442311F0CF01BFCF0895FF920F931F934F
S1132540CF93DF938C01EB01F42E6881662339F07D
S1132550219640E0C801BCDF69916111FACFFF20E8
S113256011F0C801A8DFDF91CF911F910F91FF9067
S11325700895FF920F931F93CF93DF9300D000D061
S1132580CDB7DEB78C01CB01F42E4AE0BE016F5FFC
S11325907F4FB5D14F2DBE016F5F7F4FC801CDDF97
S11325A026960FB6F894DEBF0FBECDBFDF91CF9154
S11325B01F910F91FF900895FC0181E080831182A7
S11325C013821282579A5F98E3E7F0E0808181607A
S11325D0808384EB90E09093290180932801E9E6BD
S11325E0F0E0808180648083089588EB94E0E4CFF8
S11325F00895A1E21A2EAA1BBB1BFD010DC0AA1F40
S1132600BB1FEE1FFF1FA217B307E407F50720F057
S1132610A21BB30BE40BF50B661F771F881F991FD2
S11326201A9469F760957095809590959B01AC011B
S1132630BD01CF010895A29FB001B39FC001A39F24
S1132640700D811D1124911DB29F700D811D1124E7
S1132650911D0895F0DFA59F900DB49F900DA49F48
S1132660800D911D11240895EE0FFF1F881F8BBF4D
S11326700790F691E02D19940F931F93CF93DF9356
S11326808230910510F482E090E0E091F906F09137
S1132690FA0620E030E0A0E0B0E0309719F1408184
S11326A051810281138148175907C8F0841795078F
S11326B069F4109731F012960C93129713961C93A9
S11326C027C00093F9061093FA0622C0211531059C
S11326D019F04217530718F49A01BD01EF01DF0105
S11326E0F801DBCF21153105F9F0281B390B243013
S11326F0310580F48A819B816115710521F0FB010C
S11327009383828304C09093FA068093F906FE01B2
S1132710329644C0FE01E20FF31F8193919322503D
S11327203109398328833AC02091F7063091F8069D
S1132730232B41F420910202309103023093F806D6
S11327402093F706209100023091010221153105F2
S113275041F42DB73EB74091040250910502241B69
S1132760350BE091F706F091F806E217F307A0F4B1
S11327702E1B3F0B2817390778F0AC014E5F5F4FD3
S11327802417350748F04E0F5F1F5093F806409307
S1132790F7068193919302C0E0E0F0E0CF01DF916E
S11327A0CF911F910F910895CF93DF93009709F470
S11327B081C0FC01329713821282A091F906B09174
S11327C0FA06109781F420813181820F931F2091A2
S11327D0F7063091F8062817390751F5F093F806F3
S11327E0E093F70667C0ED0120E030E0CE17DF0785
S11327F040F44A815B819E0141155105F1F0EA01E3
S1132800F5CFD383C28340815181840F951FC817AC
S1132810D90759F488819981840F951F0296918371
S113282080838A819B81938382832115310529F4D6
S1132830F093FA06E093F9063DC0E901FB83EA83CD
S113284049915991C40FD51FEC17FD0761F480819C
S11328509181840F951F0296E9019983888382816F
S113286093819B838A83E0E0F0E012968D919C91A2
S11328701397009719F0FD01DC01F7CF8D919C911E
S113288011979D012E5F3F4F820F931F2091F706F2
S11328903091F8062817390769F4309729F4109213
S11328A0FA061092F90602C013821282B093F80657
S11328B0A093F706DF91CF91089591110895815661
S11328C08A5108F4805285580895FB01DC010D906B
S11328D00020E9F7119701900D920020E1F7089587
S11328E0FB01DC014150504048F001900D92002062
S11328F0C9F701C01D9241505040E0F70895BB272D
S11329004A3031F4992322F4BDE2909581959F4F8A
S113291030C0BB272A3051F4992342F4BDE290958C
S11329208095709561957F4F8F4F9F4F01C0BB2756
S1132930FA01A62F6217710581059105330B30FB4F
S113294066F0AA27660F771F881F991FAA1FA21770
S113295010F0A21B63953850A9F7A05DAA3308F0C4
S1132960A95DA19336F7B111B1931082CA0119C0C0
S1132970BB27FB015527AA27880F991FAA1FA41755
S113298010F0A41B83955051B9F7A05DAA3308F049
S1132990A95DA193009779F7B111B1931192CB017D
S11329A000C0DC01FC01672F71917723E1F73297B6
S11329B004C07C916D9370836291AE17BF07C8F316
S11329C00895DC01CB01FC01F999FECF06C0F2BDEC
S11329D0E1BDF89A319600B40D9241505040B8F7D9
S11329E00895A8E1B0E042E050E0EDCFDC01A40F8F
S11329F0B51F4150504040F0CB01840F951F2E91DC
S1132A0005D041505040D8F70895262FF999FECFAC
S1132A1092BD81BDF89A019700B4021639F01FBA2D
S1132A2020BD0FB6F894FA9AF99A0FBE089501964C
S10D2A30272FECDFEACFF894FFCF64
S1132A3A0000FB062000202A2A2A206D6D632069E3
S1132A4A6E6974206F7220666174206C6F616420F1
S1132A5A6661696C6564202A2A2A200000202A2AD1
S1132A6A2A2073746172746C79202A2A2A2000003D
S1132A7A202A2A2A206F6B656C79202A2A2A2000A8
S1132A8A00202A2A2A206265666F726520696E6EA2
S1132A9A6572207772697465202A2A2A2000002028
S1132AAA2A2A2A20616674657220696E6E6572200C
S1132ABA77726974652066696C65206F70656E202B
S1132ACA2A2A2A200000202A2A2A2061667465728A
S1132ADA20696E6E65722077726974652066696C06
S1132AEA65207365656B202A2A2A200000202A2A79
S1132AFA2A20616674657220696E6E657220777227
S1132B0A6974652066696C65207772697465202A20
S1132B1A2A2A200000202A2A2A2061667465722043
S1132B2A696E6E6572207772697465202A2A2A2072
S1132B3A0000202A2A2A206E6F742065786973742B
S1132B4A6C79202A2A2A200000202A2A2A2062654F
S1132B5A666F7265207772697465202A2A2A2000B2
S1132B6A00202A2A2A2061667465722077726974A1
S1132B7A65202A2A2A200000212121494D504F523A
S1132B8A54414E542121212D3E000049443B4461C5
S1132B9A746554696D653B4C4449443B4469737498
S1132BAA616E6365000049443B4461746554696D10
S1132BBA653B4D6F64756C653B4572726F720000BC
S1132BCA49443B4461746554696D653B4D6F647552
S1132BDA6C653B56616C7565000031000D202F2F22
S1132BEA2F2072656164696E67206E6F77203D3DA0
S1132BFA3D200D000D203D3D3D2072656164696EE6
S1132C0A6720656E64202F2F2F200D000D204C495C
S1132C1A4E45204E4F5420464F554E4420212121E3
S1132C2A0D003B4441544554494D453B004C442E08
S1132C3A4353560045442E4353560047442E4353A8
S1132C4A56004552524F522042617474657279009B
S1132C5A536572766F3B206572726F72206261747B
S1132C6A74657279004552524F52204472697665EE
S1132C7A00536572766F3B206572726F72206472BC
S1132C8A697665004552524F5220566F6C746167DB
S1132C9A6500536572766F3B206572726F72207697
S1132CAA6F6C74616765006E6F204552524F520013
S10F2CBA657874726164726976650000CC
S9030000FC
