S01D0000536E6F774865696768744D6561737572656D656E742E7372656381
S113000074C00000A2C00000A0C00000F8C7000037
S11300100C9468089AC0000098C0000096C00000C4
S113002094C0000092C0000090C000008EC0000088
S11300308CC000008AC0000088C0000086C0000098
S113004084C0000082C0000080C000000C94CA0874
S11300507CC000007AC0000078C0000076C00000B8
S113006074C0000069C3000070C000006EC00000CE
S11300706CC000006AC0000068C0000066C00000D8
S113008064C0000062C0000060C000005EC00000E8
S11300905CC000005AC0000058C0000056C00000F8
S11300A054C0000052C0000050C000004EC0000008
S11300B04CC000004AC0000048C00000ECC700006B
S11300C044C0000042C00000CDC700003EC0000094
S11300D03CC000003AC0000038C0000036C0000038
S11300E034C00000D602C115381911241FBECFEF49
S11300F0D1E2DEBFCDBF00E00CBF15E0A0E0B2E06E
S1130100E4EBF5E400E00BBF02C007900D92AA3EB9
S1130110B107D9F728E0AAEEB5E001C01D92AB35CE
S1130120B207E1F710E0C5E7D0E000E006C0219790
S11301300109802FFE010E94F120C237D10780E01F
S11301400807A9F7CCD60C94D8225ACFCF92DF92C5
S1130150FF920F931F93CF93DF93C42F6901862FD0
S1130160880F94D2F82E811112C08C2FB4D210E0D3
S11301700115110551F0E6010C0D1D1D8991ABD23D
S1130180811108C0C017D107C9F7CDD205C0FF241B
S1130190F39402C0FF24F3948F2DDF91CF911F912C
S11301A00F91FF90DF90CF9008950F93CF93DF933B
S11301B0EC01188282E6898384E08A8388E08B8359
S11301C01C8260D201E020E030E040E06981CE0191
S11301D0BDDF1882DF91CF910F910895BF92CF9226
S11301E0DF92EF92FF920F931F93CF93DF93D42F5D
S11301F06901C62FCC0F8C2F49D2811122C08D2FBB
S11302006AD291D281E08C0F41D2B82E81111CC0E8
S1130210013069F0E601E02EF12C81E0E81AF108E2
S1130220EC0CFD1C6AD28993CE15DF05D9F710E0DA
S113023001501109E601C00FD11F6AD2888373D21D
S113024005C0BB24B39402C0BB24B3948B2DDF91AF
S1130250CF911F910F91FF90EF90DF90CF90BF90BF
S11302600895EF92FF920F93CF93DF931F921F9203
S1130270CDB7DEB77C01FC0110829C012E5F3F4F9D
S113028001E040E0618162DF9E012F5F3F4F41E06A
S1130290F7016181C701A2DF898180FF0CC001E001
S11302A09E012F5F3F4F41E0F7016181C70196DF57
S11302B0898180FDF4CF02E09E012F5F3F4F4FE81C
S11302C0F7016181C7018ADF898190E0982F88272F
S11302D02A8131E0F7013083820F911D0F900F9036
S11302E0DF91CF910F91FF90EF900895CBD185E3EB
S11302F08A95F1F700005A9AE9E6F0E0808180627D
S11303008083EA9A08958F929F92AF92BF92CF9280
S1130310DF92EF92FF920F931F93CF93DF93EB0142
S11303205A01490180EDB2D180E0D5D1FCD181EDF3
S1130330ADD1E3D18F77282F30E0359527953595CA
S113034027953595279535952795922F990F290F40
S1130350220F821BF6018083D0D1282F30E03595FF
S11303602795359527953595279535952795922F7A
S1130370990F290F220F821BF7018083BED1282FEA
S113038030E03595279535952795359527953595FD
S11303902795922F990F290F220F821BF801808332
S11303A0ACD1ABD1282F30E03595279535952795DD
S11303B03595279535952795922F990F290F220F5B
S11303C0821BF401808399D1282F30E0359527953D
S11303D0359527953595279535952795922F990F1E
S11303E0290F220F821BF501808392D1282F30E040
S11303F035952795359527953595279535952795E1
S1130400922F990F290F220F821B88838CD1DF91A1
S1130410CF911F910F91FF90EF90DF90CF90BF90FD
S1130420AF909F908F900895BF92CF92DF92EF92FA
S1130430FF920F931F93CF93DF9300D000D0CDB7DB
S1130440DEB7B62E19821A821B821C821D821E827E
S11304509E012A5F3F4F69012150310979018E01C4
S11304600C5F1F4F22503109AE014E5F5F4FBE013A
S11304706F5F7F4F48DF6D816B0D6C3310F46D83BC
S11304800EC06C536D838C8191E0980F983110F4F9
S11304909C8305C087518C838B818F5F8B8380ED18
S11304A0F5D087E018D18E811DEC819F912D112408
S11304B0969596959695292F220F920F990F890F4D
S11304C00AD18D81819F912D1124969596959695AB
S11304D0292F220F920F990F890FFDD08C81819FB4
S11304E0112D1124169516951695912F990F190F04
S11304F0110F810FF0D080E8EED015D181E026965F
S11305000FB6F894DEBF0FBECDBFDF91CF911F9120
S11305100F91FF90EF90DF90CF90BF900895CF930D
S113052080EDB4D08EE0D7D0FED081EDAFD0F0D046
S1130530C82FF9D0CC2351F080EDA8D08EE0CBD0D9
S11305408C2F8160C8D08EE0C6D0EDD0CF910895B5
S1130550CF9380ED9BD08EE0BED0E5D081ED96D0D8
S1130560D7D0C82FE0D0CC2351F080ED8FD08EE0CF
S1130570B2D08C2F8E7FAFD08EE0ADD0D4D0CF91BF
S11305800895CF9380ED82D08FE0A5D0CCD081EDBB
S11305907DD0BED0C82FC7D080ED78D08FE09BD05F
S11305A08C2F8C7F98D0BFD0CF9108958AEE95E0A0
S11305B09DCE08954BE050E060E070E00C94B322CF
S11305C00895FC011182108212821682158214820F
S11305D013821782108612861186ECCF08954BE0A1
S11305E050E060E070E00C949E220895CF93DF9376
S11305F0EC011C861B866111E4DFCE01F0DFDF9184
S1130600CF910895FC01858596850C94D422089594
S1130610FC0125853685C9010296968785870C9449
S1130620D4220895FC01148613862CEF30E036871B
S1130630258781E00895FC01858596850C94AE227A
S11306400895FC0125853685C9010296968785871C
S11306500C94AE220895FC018385948501969487B9
S11306608387258536852E5F3F4F368725872185ED
S113067032858217930720F01486138680E008954C
S113068081E0089588E48093B8000895ECEBF0E0ED
S1130690108294EA908390819923ECF79091B900A9
S11306A0987F9830A1F48093BB0084E88093BC00C9
S11306B0ECEBF0E080818823ECF79091B900987F0F
S11306C0983139F081E0903429F480E0089581E094
S11306D0089580E008958093BB0084E88093BC0073
S11306E0ECEBF0E080818823ECF79091B900987FDF
S11306F081E0983209F480E0089584EC8093BC0092
S1130700ECEBF0E080818823ECF78091BB00089546
S113071084E88093BC00ECEBF0E080818823ECF764
S11307208091BB00089584E98093BC00ECEBF0E079
S1130730808184FDFDCF08951F920F920FB60F9212
S113074011248F938091C6008093EE058091EE056D
S1130750809588B98F910F900FBE0F901F901895B8
S113076088E090E09093C5008093C400E2ECF0E050
S1130770808186608083E1ECF0E0808188698083F9
S11307800895E0ECF0E0908195FFFDCF8093C600E2
S113079008951F93CF93DF93EC01162F888188234C
S11307A029F02196EEDF89918111FCCF112311F0FC
S11307B0812FE7DFDF91CF911F910895CF93DF93CE
S11307C0CDB7DEB72B970FB6F894DEBF0FBECDBF03
S11307D02AE0AE014F5F5F4F0E94462260E0CE01E7
S11307E00196D7DF2B960FB6F894DEBF0FBECDBFB0
S11307F0DF91CF910895CF92DF92EF92FF920F9302
S11308001F93CF93DF93CDB7DEB72F970FB6F8942E
S1130810DEBF0FBECDBFEDB6FEB660E0CE010196E1
S1130820E5DECE010196CDDE8CE291E09B878A87DE
S113083084E893E09A83898386EE898784EF91E044
S11308409F838E838AE08B8386E090E09D838C83F4
S1130850CE010196AFDE8A859B85880F991F880F8C
S1130860991F2DB73EB7281B390B0FB6F8943EBF1E
S11308700FBE2DBF8DB79EB701966C012F5A3F4F07
S1130880ADB7BEB7AF5FBA4F41E062EC71E082EC46
S113089091E051E0F901E055F1099183808373837C
S11308A06283442331F0863415E0910738F48D9641
S11308B005C0833C11E0910708F08D973496E21748
S11308C0F30759F745276634E5E07E0710F4645CC6
S11308D07F4F205B3F4FA217B307E1F6CE0101968D
S11308E0A1DE2CE231E03B872A871D861C86882303
S11308F0A1F08601F80160817181CE01019682DE4A
S1130900F80162817381CE01019682DECE010196E7
S1130910A2DE0C5F1F4F8111EDCF0FB6F894FEBE1F
S11309200FBEEDBE2F960FB6F894DEBF0FBECDBF3F
S1130930DF91CF911F910F91FF90EF90DF90CF90B7
S113094008958F929F92AF92BF92EF92FF920F936E
S11309501F93CF93DF93CDB7DEB72B970FB6F894E1
S1130960DEBF0FBECDBFDC01CB017A01BB2374F027
S11309700097A105B10509F467C010E00F2EFAE055
S11309808F2E912CA12CB12CF02D2CC00097A105F9
S1130990B10501F110E00F2EFAE08F2E912CA12C5D
S11309A0B12CF02D00E3BC01CD01A50194010E94FE
S11309B0321FDA01C901E1E0F0E0EC0FFD1FE10FA5
S11309C0F11D202F261B20831F5F0097A105B10571
S11309D051F701C010E0FE01E10FF11D8DE28183AA
S11309E01F5F15C0BC01CD01A50194010E94321FF7
S11309F0DA01C901E1E0F0E0EC0FFD1FE10FF11DA8
S1130A00605D60831F5F232B242B252B59F7F7018F
S1130A1001900020E9F731979F012E193F09822F99
S1130A20412F50E0415051097AF0E1E0F0E0EC0F41
S1130A30FD1FE10FF11D120FD701A80FB11D9291F7
S1130A409C938F5F1813F8CF2B960FB6F894DEBFE4
S1130A500FBECDBFDF91CF911F910F91FF90EF900B
S1130A60BF90AF909F908F900895BF92CF92DF92E6
S1130A70EF92FF920F931F93CF93DF9300D000D098
S1130A80CDB7DEB7B82E19821A821B821C821D8252
S1130A901E82AE014A5F5F4F6A01CE0105967C015A
S1130AA08E010C5F1F4F9E012D5F3F4F4450510933
S1130AB0BE016F5F7F4F8AEE95E025DC0B2D10E0C1
S1130AC0ECE3F0E0CF01B8010E94FD1E362F262F83
S1130AD08D81AF01481B5109CA01B8010E94FD1E56
S1130AE08C818F5F883111F08C3041F08D81260F1D
S1130AF08B0D8C3330F48111FACF03C0232F220FD6
S1130B00F5CF822F26960FB6F894DEBF0FBECDBF69
S1130B10DF91CF911F910F91FF90EF90DF90CF90D5
S1130B20BF9008952F923F924F925F926F927F925F
S1130B308F929F92AF92BF92CF92DF92EF92FF92E9
S1130B400F931F93CF93DF93CDB7DEB7CA5BD1402A
S1130B500FB6F894DEBF0FBECDBFCA54DE4F8883F4
S1130B60C65BD140CC54DE4F79836883C45BD140EB
S1130B700F2EFAEECF2EF5E0DF2EF02DD6018D915B
S1130B809C91119701968D939C93C601FADCCA54EB
S1130B90DE4F6881C65BD140C60146DCA89567E795
S1130BA0CE0101960E943C19CE0101960E94FA1DC5
S1130BB08C01A895CE0101960E94E81D2C01990F85
S1130BC066087708A895CE0101960E940C1E1C01A8
S1130BD0A895CE0101960E94331EC954DE4F998315
S1130BE08883C75BD140A895CE0101960E94211E3F
S1130BF04C01990FAA08BB08A895CE0101960E9442
S1130C00451EC754DE4F99838883C95BD140A8959C
S1130C1088E196E00E9478187C01A895CC54DE4FB8
S1130C20E881F981C45BD140808190E0D6012D91A7
S1130C303C91281739076CF18091ED05882329F040
S1130C401092ED058091EC0580831092EB051092D3
S1130C50EA05A89580EF95E00E94E314811119C07C
S1130C60CC54DE4FE881F981C45BD140808180930C
S1130C70EC05CA54DE4F8881C65BD140F6DECC5405
S1130C80DE4FA881B981C45BD1408C9381E080930D
S1130C90ED05A8958DE0E7E0F2E0DE01A65BBF4F2D
S1130CA001900D928A95E1F7EAE4F0E0EC0FFD1F64
S1130CB03D9685E2DF011D928A95E9F7A89587E1C3
S1130CC0E9E3F2E0DE01A458BF4F01900D928A954A
S1130CD0E1F72BE1ECE7F0E0EC0FFD1F7796DF0185
S1130CE0322F1D923A95E9F7A89586E1EBE6F2E0FA
S1130CF0DE01A255BF4F01900D928A95E1F79CE168
S1130D00EEEAF0E0EC0FFD1F7696DF01392F1D921D
S1130D103A95E9F7A89585E1EDE9F2E0DE01A05204
S1130D20BF4F01900D928A95E1F78DE1E0EEF0E07E
S1130D30EC0FFD1F7596DF01382F1D923A95E9F7E8
S1130D40A89537E1EFECF2E0DE01AE5EBE4F019014
S1130D500D923A95E1F7E2E1F1E0EC0FFD1F779691
S1130D60DF011D922A95E9F7A89526E1E1E0F3E079
S1130D70DE01AC5BBE4F01900D922A95E1F7E4E4ED
S1130D80F1E0EC0FFD1F7696DF011D929A95E9F7CD
S1130D90A89595E1E3E3F3E0DE01AA58BE4F019084
S1130DA00D929A95E1F7E6E7F1E0EC0FFD1F7596D9
S1130DB0DF011D928A95E9F7A895B70180E090E0DC
S1130DC0AE01465B5F4FBDDDB80180E090E0AE014F
S1130DD044585F4FB6DDAE0142555F4FC301B201C7
S1130DE0B0DDB10180E090E0AE0140525F4FA9DD7B
S1130DF0C954DE4FE881F981C75BD140BF0180E06F
S1130E0090E0AE014E5E5E4F9CDDAE014C5B5E4FEA
S1130E10C501B40196DDC754DE4F28813981C95B11
S1130E20D140B90180E090E0AE014A585E4F89DDBF
S1130E30A895CE0188559E4FEED2A895BE01665B5B
S1130E407F4FCE0188559E4FE8D1A895BE016458C6
S1130E507F4FCE0188559E4FE0D1A895BE016255C3
S1130E607F4FCE0188559E4FD8D1A895BE016052C0
S1130E707F4FCE0188559E4FD0D1A895BE016E5E9E
S1130E807E4FCE0188559E4FC8D1A895BE016C5B9C
S1130E907E4FCE0188559E4FC0D1A895BE016A5899
S1130EA07E4FCE0188559E4FB8D1C654DE4F0FB643
S1130EB0F894DEBF0FBECDBFDF91CF911F910F918C
S1130EC0FF90EF90DF90CF90BF90AF909F908F9066
S1130ED07F906F905F904F903F902F900895CF93A5
S1130EE0DF93CDB7DEB7A1970FB6F894DEBF0FBE80
S1130EF0CDBF7894FE0131968DE0DF011D928A9575
S1130F00E9F70F2EF0E68F2E912CF02DC82C9C8241
S1130F108B8283E0E82E8D831E8281E08C878D870F
S1130F20A980BA80DC80F12C0F81188529853A8547
S1130F304B8551E061E0CE010E960E94C515CE01AD
S1130F400E960E94F71680EF95E00E94E31460E08D
S1130F50CE0142964BDB4FDCDC888D8989A383B7B5
S1130F60817F846083BF8D899E899093EB058093F4
S1130F70EA058AEE95E0D3DAA89588E1F401808346
S1130F8088E2808398E288E10FB6F894A89580936C
S1130F9060000FBE90936000A89502E011E00F2E50
S1130FA0F8E1EF2EF02D0F2EF8E2FF2EF02DD801F0
S1130FB08C9188608C93BE016F5D7F4F8D2DB2DD67
S1130FC0F8018081877F80830FB6F894A89580917B
S1130FD06000886180936000109260000FBE83B748
S1130FE0816083BF889583B78E7F83BF0FB6F894E3
S1130FF0A895E09260000FBEF0926000D8CF1F92D7
S11310000F920FB60F9211240BB60F922F933F93AA
S11310104F935F936F937F938F939F93AF93BF93FC
S1131020EF93FF939DDB40E065E470E080E090E0A7
S1131030C5DB8AEE95E0A5DA8AEE95E089DAFF91C0
S1131040EF91BF91AF919F918F917F916F915F913C
S11310504F913F912F910F900BBE0F900FBE0F90A9
S11310601F9018951F920F920FB60F9211240BB672
S11310700F928F93EF93FF93E8E1F6E081818F5F06
S11310808183FF91EF918F910F900BBE0F900FBE54
S11310900F901F9018951F920F920FB60F92112464
S11310A00BB60F928F93EF93FF934F9B07C0E1E230
S11310B0F1E08081887F80835F98EB9AFF91EF91C4
S11310C08F910F900BBE0F900FBE0F901F9018952D
S11310D01F920F920FB60F9211240BB60F920F931B
S11310E01F932F933F934F935F936F937F938F93AC
S11310F09F93AF93BF93CF93DF93EF93FF934B9B58
S11311000AC01092250110922401E1E2F1E08081ED
S11311108160808328C0E1E2F1E08081887F808360
S1131120EB98F89404E211E0F80120813181C8E1E0
S1131130D6E06981862F90E0A0E0B0E0DC01992739
S11311408827BC01CD01620F731F811D911D48ECDE
S113115050E00E940B189B838A83789481E08883F3
S1131160F80111821082FF91EF91DF91CF91BF912D
S1131170AF919F918F917F916F915F914F913F912B
S11311802F911F910F910F900BBE0F900FBE0F90D8
S11311901F9018951F920F920FB60F9211240BB641
S11311A00F922F933F934F935F936F937F938F93FC
S11311B09F93AF93BF93EF93FF9380EF95E00E94CB
S11311C0B414FF91EF91BF91AF919F918F917F9153
S11311D06F915F914F913F912F910F900BBE0F90A4
S11311E00FBE0F901F901895CF93DF93EC018CE8FE
S11311F093E00E940B1362E78881998111D78111D2
S113120008C08FE993E00E940B130E940E1181E045
S113121001C080E0DF91CF9108956F927F928F9209
S11312209F92AF92BF92CF92DF92EF92FF920F9371
S11312301F93CF93DF93CDB7DEB72B970FB6F894F8
S1131240DEBF0FBECDBF5C018B018DB69EB6FB0128
S113125001900020E9F73197CF01861B970B2BE013
S1131260E1E5F5E0DE01119601900D922A95E1F792
S1131270F5012281338162177307A1F19E012F5F6B
S11312803F4F6901F90101900020E9F73197AF015F
S1131290421B530BFB0101900020E9F73197E61B39
S11312A0F70B4E0F5F1F4F5F5F4F8DB79EB7841BC9
S11312B0950B0FB6F8949EBF0FBE8DBFEDB7FEB76A
S11312C031967F016E2E7F2C69E075E0CF010E947C
S11312D02D22B601C7010E942222B801C7010E9433
S11312E0222210C02DB73EB7281B390B0FB6F89435
S11312F03EBF0FBE2DBF8DB79EB70196682E792EC7
S11313000E94222280EB93E00E940B1362E7F50116
S11313108081918185D68EEC93E00E940B136091BD
S113132048087091490880914A0890914B0881D7E8
S113133085EF93E00E940B13862D972D0E943C129B
S11313408DE0E8D78AE0E6D78CE194E00E940B13A5
S113135065D784E494E00E940B130FB6F8949EBE04
S11313600FBE8DBE2B960FB6F894DEBF0FBECDBF59
S1131370DF91CF911F910F91FF90EF90DF90CF906D
S1131380BF90AF909F908F907F906F900895CF9370
S1131390DF93EC0129DF811119C081E694E00E94FA
S11313A00B13888199810E940B1363E688819981CC
S11313B037D634D788E794E00E940B136A817B8187
S11313C0CE012BDF80E994E00E940B13DF91CF91D3
S11313D00895CF93DF93EC01798368835B834A8319
S11313E01C821D821E821F82188619861A861B86FD
S11313F087EA94E00E940B13888199810E940B1361
S1131400CE01C5DFDF91CF91089545ED54E063E649
S113141075E0DFCF08954FEE54E06AE675E0D9CF6A
S113142008951092200644E356E00C949212089515
S1131430CF92DF92EF92FF920F931F93CF93DF939C
S113144000914408109145082091460830914708BE
S1131450061717072807390731F16B017C018091C2
S11314602006813041F41092200644E356E0C9017D
S1131470B8010E949212CEE3D8E08E819F81A885A4
S1131480B98580931C0690931D06A0931E06B09305
S11314901F0644E356E0C701B6010E94D212CE8271
S11314A0DF82E886F98681E0DF91CF911F910F9169
S11314B0FF90EF90DF90CF900895CF92DF92EF925C
S11314C0FF920F931F93CF93DF936B017C01C42F83
S11314D0D0E00CE116E0C701B6016D0F711D811D4E
S11314E0911DA6DF3091EF05E4E3F6E080E090E0A3
S11314F02081222311F0253E89F43F5F3C130FC065
S113150096958795929582958F7089279F708927E4
S113151080934E081092EF0581E00FC030E0809672
S1131520B096811522E0920719F73093EF05DF5F3B
S1131530F8018589D81778F280E0DF91CF911F9167
S11315400F91FF90EF90DF90CF9008950F931F932A
S11315509B01AC012250310941095109ECE1F6E04B
S1131560A589B0E00E945D1F058516852785308911
S1131570600F711F821F931F1F910F9108950F9386
S11315801F93ECE1F6E00585168527853089601BFD
S1131590710B820B930B258930E040E050E00E94F0
S11315A0101FCA01B9016E5F7F4F8F4F9F4F1F916C
S11315B00F9108950F931F93EEE3F8E0DC01A85B0D
S11315C0B94F4D915C9160E070E0BA015527442712
S11315D0DC01A25BB94F0D911C9120E030E0402B5F
S11315E0512B622B732B418B528B638B748BDC01DD
S11315F0A05BB94F8D919D910D90BC91A02D8287D8
S11316009387A487B5871F910F9108952F923F92D6
S11316104F925F926F927F928F929F92AF92BF92FE
S1131620CF92DF92EF92FF920F931F93CF93DF93AA
S11316302B013C016A01212C44E356E05301420191
S1131640820C911CA11CB11CC501B401ABD78092C2
S1131650440890924508A0924608B0924708C4E313
S1131660D6E000E010E08881882309F45AC09B8505
S1131670903119F0903209F045C0853E09F442C01A
S1131680312C912CC801845E994F7C01F701E90D3E
S1131690F11D808C90E2891202C0939415C0F6016A
S11316A0E30DF11D80818E3229F487E0891578F4E9
S11316B033940AC090E00E941A22282D30E02817A3
S11316C0390729F4339493949AE09915F8F68BE04A
S11316D0981218C0CEE3D8E0C801969587959295E4
S11316E082958F7089279F708927888BC80162DF54
S11316F08E819F81A885B9858D8B9E8BAF8BB88F8A
S113170081E00FC0005E1F4FA096011592E01907FB
S113171009F0A9CF239480913106281608F48CCFC0
S113172080E0DF91CF911F910F91FF90EF90DF90B8
S1131730CF90BF90AF909F908F907F906F905F906D
S11317404F903F902F9008952F923F925F926F9207
S11317507F928F929F92AF92BF92CF92DF92EF923D
S1131760FF920F931F93CF93DF9300D01F92CDB7B7
S1131770DEB79C838B83562E49015A016701780199
S113178081E08093200600914E0880E2089F80014A
S11317901124F801EC5CF94FFA83E983CF014596F3
S11317A011928E179F07E1F769807A80312C10E03F
S11317B06894222425F8F3012082183070F5EB8117
S11317C0FC81E30DF11D80818E3251F190E00E9485
S11317D01A22F3018083339423C03394EB81FC8178
S11317E0E30DF11D8081882331F090E00E941A22DC
S11317F0F30180833394FFEF6F1A7F0A1F5F1B305E
S1131800D1F6E981FA815386B58AA48A938E828EB1
S1131810C48ED58EE68EF78E06C01830F9F6DDCF6D
S1131820183049F7DACF0F900F900F900F90DF9197
S1131830CF911F910F91FF90EF90DF90CF90BF90C9
S1131840AF909F908F907F906F905F903F902F907C
S11318500895CF92DF92EF92FF920F931F932091FE
S11318603206203181F56B017C01CC0CDD1CEE1CB1
S1131870FF1CB701A601032E39E0769567955795AD
S113188047953A95D1F7302D80912D0690912E06EB
S1131890A0912F06B09130068A019B01080F191FF1
S11318A02A1F3B1FC901B801C3DD11E0D122EE2478
S11318B0FF24C6014896FC01E45EF94F6081718102
S11318C080E090E033C06B017C01CC0CDD1CEE1C8D
S11318D0FF1CCC0CDD1CEE1CFF1CB701A601032E63
S11318E039E076956795579547953A95D1F7302D18
S11318F080912D0690912E06A0912F06B09130066E
S11319008A019B01080F191F2A1F3B1FC901B80137
S11319108FDD11E0D122EE24FF24C6014896FC019C
S1131920E45EF94F60817181828193811F910F91EF
S1131930FF90EF90DF90CF900895CF92DF92EF92D7
S1131940FF920F931F93CF93DF938C01C0902106D6
S1131950D0902206E0902306F0902406C114D1040E
S1131960E104F10421F5809132068031C1F4F12CB7
S1131970CCE1D6E089859A85AB85BC85BC01CD01D7
S11319806F0D711D811D911DA80140DE8130B1F1E3
S11319908D89F80E8FE18F1568F780E02FC0C09015
S11319A02506D0902606E0902706F0902806CCE184
S11319B0D6E00CC0C701B601C9DDA80127DE81301D
S11319C0E9F0C701B60145DF6B017C0188EFC81659
S11319D08FEFD806E8068FE0F80618F08E8980327B
S11319E061F088EFC8168FEFD806E104F10410F314
S11319F08E898031F9F680E001C080E0DF91CF91DB
S1131A001F910F91FF90EF90DF90CF9008952F9248
S1131A103F924F925F926F927F928F929F92AF927A
S1131A20BF92CF92DF92EF92FF920F931F93CF93C7
S1131A30DF931B012C018ADDE4E3F8E0608371830A
S1131A40828393838091310690E09583848372012D
S1131A506101C0E0D0E08F010F2EFCE16F2EF6E0B3
S1131A607F2EF02DC701B601F4DE460157012FEF9A
S1131A70821A920AA20AB20A681579058A059B0598
S1131A80A1F4F3012589F80144815581FA01E20F9B
S1131A90F11D9F01F8013583248321966B017C019C
S1131AA0C115F1E0DF07F1F609C0C0923A08D092FF
S1131AB03B08E0923C08F0923D080EC052014101FF
S1131AC02FEF921AA20AB20A80923A0890923B0827
S1131AD0A0923C08B0923D08DF91CF911F910F91E5
S1131AE0FF90EF90DF90CF90BF90AF909F908F903A
S1131AF07F906F905F904F903F902F9008958F92BA
S1131B009F92AF92BF92CF92DF92EF92FF920F9388
S1131B101F93CF93DF934B015C0105C08FEF881AAD
S1131B20980AA80AB80AC501B40193DE672B682B8A
S1131B30692BA1F7C501B40109DDE4E3F8E0608392
S1131B407183828393838091310690E095838483AB
S1131B5075016401EFEFCE1ADE0AEE0AFE0AFFEF0A
S1131B609F1AAF0ABF0AC4E3D8E00CE116E0C7012C
S1131B70B6016FDE672B682B692B91F4F801258978
S1131B808C819D81820F911D9D838C83FFEFCF1AE1
S1131B90DF0AEF0AFF0AC814D904EA04FB0439F780
S1131BA0DF91CF911F910F91FF90EF90DF90CF9035
S1131BB0BF90AF909F908F9008958F929F92AF9215
S1131BC0BF92CF92DF92EF92FF920F931F9349013E
S1131BD05A0120913206203171F56B017C01CC0C45
S1131BE0DD1CEE1CFF1CB701A601032E39E076951F
S1131BF06795579547953A95D1F7302D80912D06E5
S1131C0090912E06A0912F06B09130068A019B0177
S1131C10080F191F2A1F3B1FC901B80109DC11E075
S1131C20D122EE24FF24C6014896FC01E45EF94F5C
S1131C309182808233C06B017C01CC0CDD1CEE1CD4
S1131C40FF1CCC0CDD1CEE1CFF1CB701A601032EEF
S1131C5039E076956795579547953A95D1F7302DA4
S1131C6080912D0690912E06A0912F06B0913006FA
S1131C708A019B01080F191F2A1F3B1FC901B801C4
S1131C80D7DB11E0D122EE24FF24C6014896FC01E3
S1131C90E45EF94F80829182A282B38281E08093D4
S1131CA020061F910F91FF90EF90DF90CF90BF908F
S1131CB0AF909F908F9008952F923F924F925F9292
S1131CC07F928F929F92AF92BF92CF92DF92EF92C8
S1131CD0FF920F931F93CF93DF931F921F92CDB761
S1131CE0DEB79A838983762EC0902106D09022068F
S1131CF0E0902306F0902406C114D104E104F10419
S1131D0049F4ECE1F6E0C184D284E384F484868966
S1131D10803119F00CE116E017C010E041E0C70172
S1131D20B601610F711D811D911DC7DB813009F45E
S1131D30B5C080913106180F103280F3AFC06B012B
S1131D407C0102C06B017C01C701B601FFDB41E0ED
S1131D50B4DB813009F4A2C0809044089090450817
S1131D60A0904608B0904708C701B60172DD683FED
S1131D702FEF720782072FE0920720F0F8012689DF
S1131D80203251F0683FFFEF7F0781059105B8F2DB
S1131D90F80126892031B1F6609134087091350834
S1131DA08091360890913708EADB1B012C019B01D6
S1131DB0AC01C701B60101DF2FEF3FEF4FEF5FE04A
S1131DC0C201B101FADE6091440870914508809126
S1131DD046089091470844E356E0A4D3E4E3F8E0CE
S1131DE084E396E01292E817F907E1F7512C0CE12D
S1131DF016E001C0592EE4E3F8E080819181A281CC
S1131E00B381BC01CD01650D711D811D911D09DBDF
S1131E1091E0950DF8018589581660F3E4E3F8E044
S1131E2020803180428053802092440830924508BB
S1131E304092460850924708C501B401A0DB609364
S1131E403A0870933B0880933C0890933D0841E026
S1131E50C201B10132DB8091380890913908409178
S1131E603106242F30E028173907A8F4E4E3F8E01A
S1131E70C080D180E280F38046015701840E911C1A
S1131E80A11CB11C80829182A282B382821B930B1B
S1131E909583848303C0C701B60131DE8091440871
S1131EA090914508A0914608B09147088093530843
S1131EB090935408A0935508B09356080F2EF4E35A
S1131EC0CF2EF8E0DF2EF02DF60160817181828142
S1131ED0938155DB9B01AC0160934F0870935008CC
S1131EE08093510890935208F60166837783808724
S1131EF09187109248081092490810924A0810924B
S1131F004B08E12CF12C8701672D89819A811CDC17
S1131F106091440870914508809146089091470863
S1131F2044E356E0FFD2F60180819181A281B3811E
S1131F308093440890934508A0934608B0934708BB
S1131F400F900F90DF91CF911F910F91FF90EF9021
S1131F50DF90CF90BF90AF909F908F907F905F90D5
S1131F604F903F902F9008954F925F926F927F927F
S1131F708F929F92AF92BF92CF92DF92EF92FF9295
S1131F806B017C0129013A0160913A0870913B0888
S1131F9080913C0890913D08A70196010EDEC4147F
S1131FA0D504E604F70499F0460157018FEF881A27
S1131FB0980AA80AB80AA5019401C701B601FDDD73
S1131FC075016401481459046A047B0469F72FEF0E
S1131FD03FEF4FEF5FE0C301B201EFDD40923A08FB
S1131FE050923B0860923C0870923D081092200683
S1131FF06091440870914508809146089091470883
S113200044E356E08FD2FF90EF90DF90CF90BF90E3
S1132010AF909F908F907F906F905F904F900895B6
S11320200F931F93CF93DF93EC01162F86DC81303F
S1132030C1F4123751F50EE318E0F8016189728991
S113204083899489E4DCF801D787C68760913408D2
S1132050709135088091360890913708E9D980E06D
S113206019C0811114C01336A1F4D0934D08C09344
S11320704C0862E070E080E090E041DD60E2CE0177
S11320801BDE81E08093200605C082E003C082E06D
S113209001C082E0DF91CF911F910F9108954F927B
S11320A05F926F927F928F929F92AF92BF92CF92E4
S11320B0DF92EF92FF920F931F93CF93DF93AEE3E0
S11320C0B8E0ED91FC9111971296CD90DD90ED90D2
S11320D0FC901597CE0EDF1EE11CF11C1A968D9113
S11320E09D910D90BC91A02D8C159D05AE05BF054D
S11320F008F05AC08090440890904508A090460883
S1132100B0904708309709F059C062C01192E8179F
S1132110F907E1F781E08093200610C030DA2B0143
S11321203C01609134087091350880913608909193
S1132130370825DAA301920117DF11C0C501B401E4
S11321401EDA2B013C0160913408709135088091AE
S113215036089091370813DAA301920105DFCEE324
S1132160D8E06D897E898F89988D62D9E88980E26B
S1132170E89FF0011124E05BF94FC082D182E28232
S1132180F382CA86DB86EC86FD86809234089092C0
S11321903508A0923608B092370881E08093200673
S11321A0C501B40145D929C060914408709145081E
S11321B0809146089091470834D91FC0E11582E008
S11321C0F80708F0BBCFEC5CF94F84E398E09ECFAE
S11321D0C501B40161507109810991090091340864
S11321E0109135082091360830913708601771072F
S11321F08207930708F4B3CF91CFDF91CF911F915A
S11322000F91FF90EF90DF90CF90BF90AF909F9091
S11322108F907F906F905F904F90089540DFEEE332
S1132220F8E011821082128213821482158281E0F6
S113223008958F929F92AF92BF92CF92DF92EF92C6
S1132240FF920F931F93CF93DF934B015C0127DF22
S1132250CEE3D8E069897A898B899C89D8DB40915F
S113226034085091350860913608709137081A8205
S11322701B821C821D82811482E09806A104B10491
S1132280A8F1750164018E01C4E3D8E0E2E0DE1A2E
S1132290E108F108F80182819381A481B5819E5FF0
S11322A0AF4FBF4F82839383A483B5838C819D8179
S11322B001979D838C83892B29F04F5F5F4F6F4F6C
S11322C07F4F0AC06E817F8188859985C2DA9FDB42
S11322D0488159816A817B81C114F2E0DF06E104FF
S11322E0F104A0F681E09822AA24BB24CB01BA0110
S11322F09FD890923F0880923E08DF91CF911F9122
S11323000F91FF90EF90DF90CF90BF90AF909F9090
S11323108F900895CF92DF92EF92FF920F931F93C5
S1132320CF93DF93EEE3F8E020813181A9014F5F81
S11323305F4F51834083F901E45EF94F808F41156B
S1132340524009F090C0CEE3D8E0198218828A8105
S11323509B81AC81BD819E5FAF4FBF4F8A839B83BE
S1132360AC83BD836E817F818885998544E356E083
S1132370D9D04E815F8168857985DB01CA010196D8
S1132380A11DB11D8E839F83A887B987E4E3F8E07C
S113239084819581019795838483892B09F049C0B1
S11323A00A811B812C813D818A859B85AC85BD85F5
S11323B080179107A207B30740F50CE116E0F80176
S11323C01482CB01BA01DBD86B017C01C4E3D8E0F1
S11323D0688179818A819B81D2D8A7019601C4DD65
S11323E06E817F81888599858ADB88819981AA811C
S11323F0BB818093440890934508A0934608B0930A
S1132400470881E0F801848314C0C4E3D8E06E81F6
S11324107F81888599851DDAFADA88819981AA8174
S1132420BB818093440890934508A0934608B093D9
S11324304708EEE3F8E04281538164817581828527
S11324409385A485B58584179507A607B70758F023
S1132450609144087091450880914608909147081E
S113246044E356E09FD0DF91CF911F910F91FF90ED
S1132470EF90DF90CF900895CF93DF93EC018881A4
S1132480882329F0219646DF89918111FCCF81E0D0
S113249080932006DF91CF9108958EBD0DB407FE81
S11324A0FDCF08958FEF8EBD0DB407FEFDCF8EB521
S11324B00895289AF7CF0895FF920F931F93CF930F
S11324C0DF93C82FD42F152F062FF72EF2DF28986D
S11324D0E9DF8F3FE9F78C2F8064DFDF8F2DDDDFAD
S11324E0802FDBDF812FD9DF8D2FD7DFCC2389F03D
S11324F0C83061F081E0D1DFCC3009F4D3DFCAE029
S1132500D1DF88234CF4C150D9F706C087E8C5DF72
S1132510F6CF85E9C2DFF3CFDF91CF911F910F9101
S1132520FF900895FF920F931F93CF93DF938A0137
S11325302091330623FD09C0052E59E0660F771F4D
S1132540881F991F5A95D1F7502DAB01BC0188E122
S1132550B3DFF82E81111EC0A5DF8F3FE9F78EEFA0
S11325609CDFE8011E5F899198DFC017D107D9F776
S11325708FEF93DF8FEF91DFC4E194DF8F718530AC
S113258019F0C150D1F707C0CC2329F092DFFF2402
S1132590F39401C0F12C8F2DDF91CF911F910F91F6
S11325A0FF9008950F931F93CF93DF938A01209197
S11325B0330623FD09C0052E59E0660F771F881FD7
S11325C0991F5A95D1F7502DAB01BC0181E174DFFD
S11325D0C82F811111C066DF8F3FE9F38E3F69F484
S11325E0E8011E5F5FDF8993C017D107D9F75ADF6F
S11325F059DF5FDFC1E001C0C0E08C2FDF91CF91D4
S11326001F910F910895E0ECF0E0908195FFFDCFCC
S11326108093C6000895CF93DF93EC0188818823CB
S113262029F02196F0DF89918111FCCFDF91CF91C0
S11326300895CF93DF93FC0111A210A289E182A334
S113264013A2A0E8B0E08C9182608C93C1E8D0E042
S11326508881886188838C91806A8C938FE39CE95C
S1132660909387008093860084B1806684B98FE656
S113267097E190938D0080938C00AFE6B0E08C914D
S113268088608C9381E090E0918B808BDF91CF9177
S1132690089521E030E0FC0131A320A310928500CD
S11326A010928400E1E8F0E08081826080830895E4
S11326B0E1E8F0E02081287F2083FC0111A210A230
S11326C00895FC01118A108A6C32F1E07F0738F01A
S11326D06D3D25E0720728F06CED75E002C06CE2F8
S11326E071E04C32E1E05E0738F04D3DF5E05F0704
S11326F028F04CED55E002C04CE251E0660F771F24
S113270061557B4F440F551F41555B4F70938900B2
S113271060938800FC017183608350938B00409325
S11327208A0053834283B5CF0895EAE7F0E08081BD
S11327308368808380E480937C00808180648083CC
S1132740808186FDFDCF8091780090917900089575
S1132750CF93DF93CDB7DEB72C970FB6F894DEBFD7
S11327600FBECDBFFC01228D338D2230310579F4AB
S113277021E735E0358F248FCE0101960E94050AAA
S11327806FE775E0CE0101960E940D092BC0213040
S1132790310581F424E935E0FC01358F248FCE0125
S11327A001960E94050A60EA75E0CE0101960E9436
S11327B00D0918C02330310581F423EB35E0FC0109
S11327C0358F248FCE0101960E94050A61EC75E0D5
S11327D0CE0101960E940D0905C026ED35E0FC01ED
S11327E0358F248F2C960FB6F894DEBF0FBECDBF65
S11327F0DF91CF910895FC01208931892230310580
S113280039F421E030E0338F228FA2DF81E0089594
S1132810FC01138E128E9CDF80E008958F929F92AC
S1132820AF92BF92CF92DF92EF92FF920F931F93DA
S1132830CF93DF93CDB7DEB761970FB6F894DEBFC1
S11328400FBECDBF4C01FE0131968DE0DF011D921C
S11328508A95E9F783E0E82E8D831E8281E08C87D8
S11328608D8780E8C82E8B8384E08C83A980BA800E
S11328706894DD24D2F8F12C0F81188529853A85D6
S11328804B8551E061E0CE010E967FD1CE010E96CC
S1132890AED2ECE7F0E080818C7F8083EAE7F0E061
S11328A0808180648083808186FDFDCF8091780063
S11328B090917900F40195A384A3ECE7F0E0808182
S11328C081608083EAE7F0E0808180648083808196
S11328D086FDFDCF6091780070917900D4019796C0
S11328E07C936E93969794968D919C91959715965B
S11328F09C938E93149717967C936E93169741E04E
S1132900CE010E9627D3F40184A195A1889720F4D3
S113291086A197A1889758F083E090E0D4015B9654
S11329209C938E935A97C40113DF11E006C0F401FF
S1132930138E128EC4010CDF10E0CE010E9656D217
S1132940812F61960FB6F894DEBF0FBECDBFDF9125
S1132950CF911F910F91FF90EF90DF90CF90BF9098
S1132960AF909F908F900895CF93DF93EC018BA14C
S11329708F5F8BA39AA18917F8F01BA2CE014EDFBB
S11329808823A1F088A199A1029739F482E090E00C
S1132990998B888BCE018CDE0FC082E090E099A3E6
S11329A088A38FED95E09D878C8706C0CE0180DEDD
S11329B081E090E0998B888B1B8E1A8ECE01C8DE45
S11329C0DF91CF9108956F927F928F929F92AF92F1
S11329D0BF92CF92DF92EF92FF920F931F93CF9308
S11329E0DF93CDB7DEB7A5970FB6F894DEBF0FBE61
S11329F0CDBFE2E0F1E080818061808380EF95E0EB
S1132A0094DEFE0170968DE0DF011D928A95E9F750
S1132A1080E6C82E8A8B1B8A83E0E82E8C8B1D8A65
S1132A2081E08B8F8C8FA888B988D12CF12C0E89EA
S1132A301F89288D398D4A8D51E061E0CE0182963F
S1132A40A4D0CE018296D3D160E0CE0101960E943B
S1132A50F602CE0101960E941203182FCE014D9664
S1132A600E94D500112309F46EC0EE24E394F12CE6
S1132A700F2EFCE26F2EF02D7724739400EF15E0F7
S1132A800F2EFBE3CF2ED12CF02DA895CE0101966D
S1132A900E941B035C01CE0101960E942103BDED3F
S1132AA0AB16B5E0BB0610F0A62CB72C8D3DE5E0C7
S1132AB09E0710F0862D972DD80190962D913C916C
S1132AC0919721153105E9F7AC01B501C801F9DD8C
S1132AD0F80180899189892B59F4F5E0FA95F1F789
S1132AE00000D80150968D919C915197892BA9F3A0
S1132AF0C80181DE811122C084E090E00E94F920A7
S1132B005C01B7010E942222F50101900020E9F73F
S1132B103197D182C082B401C5010E942222CE0124
S1132B204D960E9431014C01CE0101960E942B0367
S1132B30BFEFEB1AFB0A8111A8CF05C0CE01829624
S1132B4055D180E009C0CE01829650D1E2E0F1E097
S1132B5080818F7E808381E0A5960FB6F894DEBFD6
S1132B600FBECDBFDF91CF911F910F91FF90EF90DA
S1132B70DF90CF90BF90AF909F908F907F906F9099
S1132B80089580EF95E055CD0895AF92BF92CF920E
S1132B90DF92EF92FF920F931F93CF93DF93CDB702
S1132BA0DEB72D970FB6F894DEBF0FBECDBFFC0184
S1132BB0A982BA82CB82DC82ED82FE820F831887DF
S1132BC029873A87D42E4B875C876D872B813C817C
S1132BD00D811E81CF80B984E980FA80F182E08280
S1132BE052836383442319F1A0E2B3E00E944E1F91
S1132BF09B01AC0160E074E284EF90E00E94101F3E
S1132C002150310981E0E816F10409F451C024F49B
S1132C10EF2809F4CBC0D9C082E0E816F10409F426
S1132C2071C083E0E816F10409F496C0CEC0A0E4B4
S1132C30B6E00E944E1F9B01AC0160E074E284EF99
S1132C4090E00E94101F2150310981E0E816F10440
S1132C5079F124F4EF2809F4B3C0B7C082E0E81690
S1132C60F10409F44FC083E0E816F10409F474C0D8
S1132C70ACC0E2ECF0E08081980123703327220F8E
S1132C80331FBB0CBB0CBB0CB22AB82ACC0CCC0C2B
S1132C90CC0CCC0CCB28C082E1ECF0E08081047039
S1132CA01127000F111F000F111F082B00838DC067
S1132CB03093CD002093CC00DD2029F0E8ECF0E047
S1132CC0808182608083EAECF0E080819801237047
S1132CD03327220F331FBB0CBB0CBB0CB22AB82A00
S1132CE0CC0CCC0CCC0CCC0CCB28C082E9ECF0E0A6
S1132CF0808104701127000F111F000F111F082B72
S1132D00008363C03093D5002093D400DD2029F0E4
S1132D10E0EDF0E0808182608083EAECF0E0808185
S1132D20980123703327220F331FBB0CBB0CBB0C41
S1132D30B22AB82ACC0CCC0CCC0CCC0CCB28C0823C
S1132D40E9ECF0E0808104701127000F111F000FDF
S1132D50111F082B008339C03093350120933401AF
S1132D60DD2029F0E0E3F1E0808182608083E2E30A
S1132D70F1E08081980123703327220F331FBB0CAD
S1132D80BB0CBB0CB22AB82ACC0CCC0CCC0CCC0C93
S1132D90CB28C082E1E3F1E0808104701127000FA9
S1132DA0111F000F111F082B00830FC03093C500A3
S1132DB02093C400E0ECF0E080818260808359CFEE
S1132DC03093C5002093C40054CF2D960FB6F894C9
S1132DD0DEBF0FBECDBFDF91CF911F910F91FF904A
S1132DE0EF90DF90CF90BF90AF9008950895FC01CD
S1132DF02081318121303105E1F01CF4232B41F095
S1132E0008952230310531F123303105A1F10895BF
S1132E108281882329F0A1ECB0E08C9180618C93AD
S1132E2083818823C1F1E1ECF0E0808188608083B4
S1132E3008958281882329F0A9ECB0E08C91806107
S1132E408C938381882339F1E9ECF0E080818860F8
S1132E50808308958281882329F0A1EDB0E08C91CC
S1132E6080618C9383818823B1F0E1EDF0E080816F
S1132E708860808308958281882329F0A1E3B1E0EA
S1132E808C9180618C938381882329F0E1E3F1E0C4
S1132E908081886080830895CF93DF93EC0140E0C4
S1132EA06AE007D040E06DE0CE0103D0DF91CF911E
S1132EB00895FC01208131812130310599F01CF401
S1132EC0232B41F026C022303105A1F023303105F7
S1132ED0C9F01FC0A0ECB0E09C9195FFFDCF6093BA
S1132EE0C60017C0A8ECB0E09C9195FFFDCF60939D
S1132EF0CE000FC0A0EDB0E09C9195FFFDCF609394
S1132F00D60007C0A0EDB0E09C9195FFFDCF609383
S1132F10D600442311F0CF01BFCF0895FF920F9341
S1132F201F93CF93DF938C01EB01F42E688166230A
S1132F3039F0219640E0C801BCDF69916111FACFF4
S1132F40FF2011F0C801A8DFDF91CF911F910F91ED
S1132F50FF900895FF920F931F93CF93DF9300D0B8
S1132F6000D0CDB7DEB78C01CB01F42E4AE0BE0110
S1132F706F5F7F4F0E943C224F2DBE016F5F7F4FDA
S1132F80C801CCDF26960FB6F894DEBF0FBECDBFC6
S1132F90DF91CF911F910F91FF900895FC0181E083
S1132FA08083118213821282579A5F98E3E7F0E0DC
S1132FB080818160808384EB90E0909329018093E9
S1132FC02801E9E6F0E080818064808308950F930E
S1132FD01F93CF938B01AB014C5E5F4F61E0C0E068
S1132FE005C0E417F50721F4711111C0F801762F1B
S1132FF081919191208131812817390790F7DF0160
S113300012972D933C93918380837C2FEACFCF91A9
S11330101F910F9108954F925F926F927F928F92BA
S11330209F92AF92BF92CF92DF92EF92FF920F9353
S11330301F93CF93DF93EA01AAE6B8E19B01AC01A9
S11330403CD728EC30E040E050E0EAD629013A01D0
S11330508EE592E0C89F9001C99F300DD89F300D36
S11330601124C901A0E0B0E09C01AD012E58324703
S11330704D4C5F4FACE3B0E020D7DC01CB01A82E70
S1133080B92ECA2EDB2EE12CF12C00E010E020E05A
S113309030E749EC52EB6BE870E080E090E095D7C4
S11330A0822E932E940140E050E0C301B201B8D6C1
S11330B0C901DF91CF911F910F91FF90EF90DF90A5
S11330C0CF90BF90AF909F908F907F906F905F90C4
S11330D04F900895FC012081222349F01082109220
S11330E019065F9AE1E2F1E08081816080830895AE
S11330F04F925F926F927F928F929F92AF92BF9204
S1133100CF92DF92EF92FF920F931F93CF93DF93AF
S1133110CDB7DEB764970FB6F894DEBF0FBECDBF50
S11331208C01E3E7F0E0808182608083AE014F5F31
S11331305F4F7A015E0155E1A50EB11C6701C8011C
S1133140C9DFF8018081811104C0F80180818823DE
S1133150E1F3F80182819381F601819391936F01E8
S1133160EA15FB0561F7E3E7F0E080818D7F80835A
S1133170BE016F5F7F4FC8012ADF49845A848B8563
S11331809C85480E591E56944794612C712CAFE5CA
S1133190B0E0A301920191D624E630E040E050E093
S11331A03FD649015A01A9E6B0E0A301920185D6B0
S11331B024E630E040E050E033D689019A0180E013
S11331C090E0F701419151917F0160E070E0481572
S11331D059056A057B0540F00417150726073707CC
S11331E020F421E0280F05C0982F8F5F8A3049F71B
S11331F029E09217C0F4892FC12CD12C7601E82F35
S1133200F0E0EE0FFF1F41E050E04C0F5D1FE40FB4
S1133210F51F40815181C40ED51EE11CF11C8F5F46
S11332202813EDCF03C0C12CD12C760130E0291B2B
S11332303109032E000C440B550BC701B601F0D520
S1133240C90164960FB6F894DEBF0FBECDBFDF91FF
S1133250CF911F910F91FF90EF90DF90CF90BF908F
S1133260AF909F908F907F906F905F904F90089554
S113327088E196E093CE08951F93CF93DF93EC01FA
S1133280162F188219821A821B821C821D821E82AA
S11332901F82188619861A861B86188A198A1A8A22
S11332A01B8A0E944203C85BDF4F1883DF91CF91D2
S11332B01F910895CF93DF93D82FC62F862F880FA1
S11332C00E944603811115C08D2F0E946B030E943A
S11332D093038C2F880F81600E944603811109C0DB
S11332E00E948803C82FD0E00E9493038C2F9D2F47
S11332F000C0DF91CF910895CF92DF92EF92FF92B9
S1133300CF93F82EC62F862F880F0E944603811173
S113331027C08F2D0E946B030E9493038C2F880F6C
S113332081600E94460381111BC00E947D03C82E48
S1133330D12CE12CF12CFE2CED2CDC2CCC240E9485
S11333407D03C82AFE2CED2CDC2CCC240E9488039F
S1133350C82A0E9493036C2D7D2D8E2D9F2D00C0B5
S1133360CF91FF90EF90DF90CF9008952F923F92EE
S11333704F925F926F927F928F929F92AF92BF9281
S1133380CF92DF92EF92FF920F931F93CF93DF932D
S1133390CDB7DEB7AD970FB6F894DEBF0FBECDBF85
S11333A09A83898380910602880F0E94460384EFE2
S11333B00E946B038EE40E946B030E9493038FEBC5
S11333C09DE50197F1F700C0000080910602880F87
S11333D00E94460388E80E946B030E949303809135
S11333E00602880F8F5F0E9446030E947D03E82E29
S11333F00E947D03F82E0E947D03182F0E947D03F6
S1133400082F0E947D038C830E947D038B830E947E
S11334107D038F8B0E947D03888F0E947D03898F9B
S11334200E947D038A8F0E947D038B8F0E947D03FF
S11334308C8F0E947D038D8F0E947D038E8F0E944E
S11334407D038C870E947D038D870E947D03882ED7
S11334500E947D03982E0E947D038F8F0E947D031E
S113346088A30E947D0389A30E947D038AA30E94EE
S11334707D038BA30E947D038CA30E947D030E9485
S113348088030E94930380910602880F0E944603DA
S113349082EF0E946B0381EE0E946B030E949303F0
S11334A080910602880F8F5F0E9446030E947D036D
S11334B00E947D030E947D030E947D030E947D0380
S11334C00E947D030E947D030E9488030E9493034F
S11334D0A981BA81D4964D915D916D917C91D797D4
S11334E0DB01CA01689413F8B595A795979587955C
S11334F01694D1F7E981FA8184AB95ABA6ABB7AB4F
S11335008F2D90E0982F88278E0D911DA0E0B0E0BC
S1133510C52ED62EE72EFF24E7FCFA94C81AD90A42
S1133520EA0AFB0A689416F87595679557954795C6
S11335301694D1F7880F991FAA1FBB1F9A01AB01DC
S1133540281B390B4A0B5B0BA02FB0E0BA2FAA271C
S1133550A10FB11DB2D42B013C01032E3BE07594A5
S11335606794579447943A95D1F7302DA701960163
S1133570C701B60133D49B01AC01012E1CE0559563
S11335804795379527951A95D1F7102D0B81A02FC4
S1133590B0E0BA2FAA271C81A10FB11D8ED4DC0183
S11335A0CB01072E7EE0B595A795979587957A95DB
S11335B0D1F7702D480E591E6A1E7B1E448A558A07
S11335C0668A778AD301C201880F991FAA1FBB1F7D
S11335D0880F991FAA1FBB1F840D951DA61DB71D1B
S11335E080589F4FAF4FBF4F692F7A2F8B2F99274A
S11335F087FD9A958FD35BD3E981FA8160837183C8
S11336008283938380A991A9A2A9B3A98C019D0166
S1133610689413F835952795179507951694D1F75F
S11336200D831E832F83388700AB11AB22AB33ABE2
S113363073016201FF0CCC08DC2C7601242D352D9E
S1133640462D572D6C2D7C2D8C2D9C2D345F4140A7
S1133650510961097109810991092DA73DA3242EFE
S1133660352E462E572E682E792EA22EB32EC42E1A
S1133670D52EE62EF72E082F192F29D42B833C8321
S113368049875A876B877C8B8D8B9E8B492D50E0A5
S1133690542F4427480D511DA22EB32EC984DA8419
S11336A0EB84FC880D891E89242F352F40E050E0DF
S11336B060E070E080E090E00AD42E873F87488B7A
S11336C0598B6A8B7B8B882E992EBD854B2F50E0AE
S11336D0542F4427EC854E0F511DADA4BDA0C22C20
S11336E0D32CE42CF52C062D172D242F352F40E058
S11336F050E060E070E080E090E0E9D301E108D5BB
S1133700AE84BF84C888D988EA88FB88082D192D1F
S113371036D52C873D874E875F87688B798B8A8B5C
S11337209B8BFA8D4F2F50E0542F4427098D400F67
S1133730511DADA4BDA0C22CD32CE42CF52C062D18
S1133740172D242F352F40E050E060E070E080E03A
S113375090E0BDD30CE0DCD4422E532E642E752EA3
S1133760862E972E8A8F998F1C8D412F50E0542FCF
S113377044272B8D420F511DAB80BC80C984DA8451
S1133780EB84FC880D891E89242F352F40E050E0FE
S113379060E070E080E090E09AD308E0D2D4A42CFA
S11337A0B52CC62CD72CE82CF92C0A8D198DE7D40E
S11337B070588F4F9F4FA88D2A2E312C322C2224E3
S11337C0BF892B0E311CA22CB32CC12CD12CE12C83
S11337D0F12C00E010E07BD3622E732E842E952E04
S11337E06A8779878B839C8380E090E0A0E1B0E0D6
S11337F00D811E812F813885801B910BA20BB30B89
S11338006C017D01FF0CCC08DC2C7601282F392FAC
S11338104A2F5B2F6C2D7C2D8C2D9C2D0FE178D4A1
S1133820222E332E442E552EB62FA72FF82FE92FF4
S11338301E8DA12EB12CBA2CAA242D8DA20EB11C42
S11338402A2D3B2D40E050E060E070E080E090E005
S113385003E25ED4AC84BD84CE84DF84E888F98836
S11338600A891B898CD4A22EB32EC42ED52EE62E03
S1133870F72E082F192F222D332D442D552D6B2F64
S11338807A2F8F2F9E2F84D40F2EF5E3AF2EF02D99
S11338900F2EFCE0BF2EF02DC12CD12CE12CF12CED
S11338A000E010E014D3222E332E442E552EB62FD2
S11338B0A72FF82FE92F262D372D482D592D6A854E
S11338C079858B819C8101E23CD4A22EB32EC42E37
S11338D0D52EE62EF72E082F192F222D332D442D09
S11338E0552D6B2F7A2F8F2F9E2F44D32D873C87F6
S11338F04D835B836C8379878A879B870DE021D412
S1133900922E832E742E652E562E472E382E292E57
S11339103CA1432F50E0542F44276BA1460F511D67
S1133920A92CB82CC72CD62CE52CF42C032D122D45
S1133930242F352F40E050E060E070E080E090E01C
S1133940C6D2C5D209E1FDD3AD84BC84CD80DB8071
S1133950EC80F9840A851B8512D4222E332E442E42
S1133960552E662E772E882E992E7AA1472F50E059
S1133970542F442789A1480F511D242F352F40E08F
S113398050E060E070E080E090E0A1D203E1D9D3A0
S1133990A22EB32EC42ED52EE62EF72E082F192FC5
S11339A0222D332D442D552D662D772D882D992DBF
S11339B0E6D308E0C6D3A22EB32EC42ED52EE62E0F
S11339C0F72E982EE92FA8A18A2F90E0982F882708
S11339D0BF8D8B0F911D8C0120E030E040E050E062
S11339E0BA018DA31EA32FA338A749A75AA76BA773
S11339F07CA7282F312F40E050E060E070E080E0A9
S1133A0090E004E085D3092D1E2FB9D3A12C0F2EED
S1133A10F4E6BF2EF02DC12CD12CE12CF12C00E0CA
S1133A2010E0A8D2A981BA8150962C935097519650
S1133A303C93519752964C93529753965C93609152
S1133A4006028DEF37DCA0E0B0E0E981FA8180AFB7
S1133A5091AFA2AFB3AF84879587A687B787AD969A
S1133A600FB6F894DEBF0FBECDBFDF91CF911F918B
S1133A700F91FF90EF90DF90CF90BF90AF909F9009
S1133A808F907F906F905F904F903F902F9008950C
S1133A901F93CF93DF93EC0180910602880F0E945D
S1133AA0460382EF0E946B030E94930380910602F7
S1133AB0880F8F5F0E9446030E948803182F0E947C
S1133AC09303197F80910602880F0E94460382EFB8
S1133AD00E946B03812F81600E946B030E949303F9
S1133AE080910602880F0E94460385EF0E946B03B3
S1133AF00E94930380910602880F8F5F0E94460301
S1133B000E948803182F0E9493031E768091060258
S1133B10880F0E94460385EF0E946B03812F8C66F9
S1133B200E946B030E94930380910602880F0E94F7
S1133B30460384EF0E946B038EE40E946B030E9491
S1133B40930380910602880F0E94460387EF0E9428
S1133B506B030E9493038FEB9DE50197F1F700C07F
S1133B60000080910602880F8F5F0E9446030E9426
S1133B707D030E947D030E947D030E947D030E94B9
S1133B807D030E947D030E947D03182F0E948803F9
S1133B900E949303609106028AEFAEDB6CAB7DABAF
S1133BA08EAB9FAB6091060287EFA6DB68AB79AB67
S1133BB08AAB9BAB812F90E0A0E0B0E088AF99AFD7
S1133BC0AAAFBBAFCE01D2DBDF91CF911F91089595
S1133BD0CF93DF93EC0188819981AA81BB81892BE2
S1133BE08A2B8B2B11F4CE0153DF88819981DF91CD
S1133BF0CF910895CF93DF93EC0188899989AA899D
S1133C00BB89892B8A2B8B2B11F4CE0141DF888948
S1133C109989DF91CF910895CF93DF93EC012C81A3
S1133C203D814E815F81688579858A859B85A0E089
S1133C30B8D211F4CE012CDF8C859D85DF91CF9114
S1133C400895CF93DF93EC01888D998DAA8DBB8D58
S1133C50892B8A2B8B2B11F4CE011ADF888D998D39
S1133C60DF91CF910895CF93DF93EC0188A599A5B7
S1133C70AAA5BBA5892B8A2B8B2B11F4CE0108DFB7
S1133C8088A599A5DF91CF910895CF93DF93EC0197
S1133C908CA19DA1AEA1BFA1892B8A2B8B2B11F4E2
S1133CA0CE01F6DE8CA19DA1DF91CF91089504D0C1
S1133CB06894B1118DC0089570D088F09F5790F02A
S1133CC0B92F9927B751A0F0D1F0660F771F881F3D
S1133CD0991F1AF0BA95C9F712C0B13081F077D0A4
S1133CE0B1E0089574C0672F782F8827B85F39F042
S1133CF0B93FCCF3869577956795B395D9F73EF49C
S1133D0090958095709561957F4F8F4F9F4F089543
S1133D10E89409C097FB3EF4909580957095619561
S1133D207F4F8F4F9F4F9923A9F0F92F96E9BB2717
S1133D309395F695879577956795B795F111F8CF93
S1133D40FAF4BB0F11F460FF1BC06F5F7F4F8F4FFE
S1133D509F4F16C0882311F096E911C0772321F0F4
S1133D609EE8872F762F05C0662371F096E8862F8C
S1133D7070E060E02AF09A95660F771F881FDAF7E3
S1133D80880F9695879597F9089557FD9058440F95
S1133D90551F59F05F3F71F04795880F97FB991FA6
S1133DA061F09F3F79F08795089512161306140663
S1133DB0551FF2CF4695F1DF08C0161617061806F0
S1133DC0991FF1CF86957105610508940895E894CB
S1133DD0BB2766277727CB0197F90895DB018F93DB
S1133DE09F936BD0BF91AF91A29F800D911DA39F14
S1133DF0900DB29F900D1124089597FB072E16F491
S1133E00009406D077FD08D0D8D107FC05D03EF445
S1133E10909581959F4F0895709561957F4F089572
S1133E20A1E21A2EAA1BBB1BFD010DC0AA1FBB1FBA
S1133E30EE1FFF1FA217B307E407F50720F0A21B2C
S1133E40B30BE40BF50B661F771F881F991F1A9499
S1133E5069F760957095809590959B01AC01BD01C3
S1133E60CF010895052E97FB16F400940FD057FD4B
S1133E7005D0D6DF07FC02D046F408C05095409523
S1133E80309521953F4F4F4F5F4F08959095809502
S1133E90709561957F4F8F4F9F4F0895A29FB001FA
S1133EA0B39FC001A39F700D811D1124911DB29F6A
S1133EB0700D811D1124911D0895F0DFA59F900DB3
S1133EC0B49F900DA49F800D911D11240895DF933C
S1133ED0CF931F930F939A9DF02D219FF00D8B9DEF
S1133EE0F00D8A9DE02DF10D039FF00D029FE00D72
S1133EF0F11D4E9DE00DF11D5E9DF00D4F9DF00DE9
S1133F007F936F93BF92AF925F934F93D501C6DFB8
S1133F108B01AC01D701C2DFEB01E80FF91FD60119
S1133F201FD02F913F91D601B9DFC60FD71FE81FCD
S1133F30F91FAF91BF9114D02F913F91AFDFC60FFE
S1133F40D71FE81FF91FD601A9DFE60FF71F980155
S1133F50BE01CF0111240F911F91CF91DF910895DC
S1133F609DDF460F571FC81FD91F08F431960895C7
S1133F70689401C0E894F92FF12B0AF027C0A0E05F
S1133F80B0E0E4ECFFE193C0092E05941AF479D073
S1133F90112392F4F0E80F26FFEFE094F0940095DB
S1133FA01095B094C094D094A194BF0ACF0ADF0AAC
S1133FB0EF0AFF0A0F0B1F0B13D007FC62D0CDB71B
S1133FC0DEB7ECE090C0689401C0E8948F929F92B1
S1133FD0CF93DF9305D0DF91CF919F908F90089579
S1133FE088249924F401E401B0E49F93AA279A1544
S1133FF08B049C04ED05FE05CF05D007A10798F4BA
S1134000AD2FDC2FCF2FFE2FE92D982C892E982F42
S1134010872F762F652F542F432F322F2227B85006
S113402031F7BF9127C01B2EBF91BB27220F331F2F
S1134030441F551F661F771F881F991F881C991CD2
S1134040EE1FFF1FCC1FDD1FAA1FBB1F8A149B047A
S1134050EC05FD05CE05DF05A007B10748F08A1879
S11340609B08EC09FD09CE09DF09A00BB10B216007
S11340701A94E1F62EF49401AF01BE01CD01000CB7
S113408008956095709580959095309540955095DC
S113409021953F4F4F4F5F4F6F4F7F4F8F4F9F4F34
S11340A008952F923F924F925F926F927F928F92D8
S11340B09F92AF92BF92CF92DF92EF92FF920F93B3
S11340C01F93CF93DF93CDB7DEB7CA1BDB0B0FB6BD
S11340D0F894DEBF0FBECDBF19942A88398848886A
S11340E05F846E847D848C849B84AA84B984C88410
S11340F0DF80EE80FD800C811B81AA81B981CE0F07
S1134100D11D0FB6F894DEBF0FBECDBFED010895EB
S11341100F93083090F0982F872F762F652F542F08
S1134120432F322F22270850F4CF220F331F441F6E
S1134130551F661F771F881F991F0A95B2F70F91A5
S1134140089597FB10F8169400080F93083098F020
S11341500850232F342F452F562F672F782F892F60
S1134160902DF4CF059497958795779567955795F6
S11341704795379527950A95AAF70F9108952A0D23
S11341803B1D4C1D5D1D6E1D7F1D801F911F0895DD
S11341902A193B094C095D096E097F09800B910BB3
S11341A008950024A7FD00942A1730054005500502
S11341B060057005800590050895AA1BBB1B51E19D
S11341C007C0AA1FBB1FA617B70710F0A61BB70B83
S11341D0881F991F5A95A9F780959095BC01CD0128
S11341E00895EE0FFF1F881F8BBF0790F691E02DF7
S11341F019940F931F93CF93DF938230910510F49A
S113420082E090E0E0915908F0915A0820E030E013
S1134210A0E0B0E0309719F140815181028113810F
S113422048175907C8F08417950769F4109731F0B7
S113423012960C93129713961C9327C00093590857
S113424010935A0822C02115310519F0421753075B
S113425018F49A01BD01EF01DF01F801DBCF21154C
S11342603105F9F0281B390B2430310580F48A819B
S11342709B816115710521F0FB019383828304C046
S113428090935A0880935908FE01329644C0FE0167
S1134290E20FF31F819391932250310939832883CC
S11342A03AC02091570830915808232B41F42091AB
S11342B0020230910302309358082093570820914A
S11342C00002309101022115310541F42DB73EB7AA
S11342D04091040250910502241B350BE0915708CC
S11342E0F0915808E217F307A0F42E1B3F0B281790
S11342F0390778F0AC014E5F5F4F2417350748F05B
S11343004E0F5F1F50935808409357088193919321
S113431002C0E0E0F0E0CF01DF91CF911F910F9157
S11343200895CF93DF93009709F481C0FC0132977D
S113433013821282A0915908B0915A08109781F4FF
S113434020813181820F931F2091570830915808A2
S11343502817390751F5F0935808E093570867C0B8
S1134360ED0120E030E0CE17DF0740F44A815B81A5
S11343709E0141155105F1F0EA01F5CFD383C283C3
S113438040815181840F951FC817D90759F488813A
S11343909981840F951F0296918380838A819B81E2
S11343A0938382832115310529F4F0935A08E0930D
S11343B059083DC0E901FB83EA8349915991C40F2F
S11343C0D51FEC17FD0761F480819181840F951F3F
S11343D00296E90199838883828193819B838A83EE
S11343E0E0E0F0E012968D919C911397009719F0FC
S11343F0FD01DC01F7CF8D919C9111979D012E5FFA
S11344003F4F820F931F2091570830915808281767
S1134410390769F4309729F410925A081092590810
S113442002C013821282B0935808A0935708DF91F8
S1134430CF9108959111089581568A5108F48052BC
S113444085580895FB01DC010D900020E9F71197D0
S113445001900D920020E1F70895FB01DC01415029
S1134460504048F001900D920020C9F701C01D9200
S113447041505040E0F70895BB274A3031F4992366
S113448022F4BDE2909581959F4F30C0BB272A301E
S113449051F4992342F4BDE290958095709561950D
S11344A07F4F8F4F9F4F01C0BB27FA01A62F621782
S11344B0710581059105330B30FB66F0AA27660F61
S11344C0771F881F991FAA1FA21710F0A21B6395BC
S11344D03850A9F7A05DAA3308F0A95DA19336F777
S11344E0B111B1931082CA0119C0BB27FB01552732
S11344F0AA27880F991FAA1FA41710F0A41B83953D
S11345005051B9F7A05DAA3308F0A95DA1930097B3
S113451079F7B111B1931192CB0100C0DC01FC0118
S1134520672F71917723E1F7329704C07C916D93E3
S113453070836291AE17BF07C8F30895DC01CB0105
S1134540FC01F999FECF06C0F2BDE1BDF89A31969F
S113455000B40D9241505040B8F70895A8E1B0E07E
S113456042E050E0EDCFDC01A40FB51F41505040B4
S113457040F0CB01840F951F2E9105D0415050403F
S1134580D8F70895262FF999FECF92BD81BDF89AE8
S1134590019700B4021639F01FBA20BD0FB6F89483
S11345A0FA9AF99A0FBE08950196272FECDFEACF05
S10745B0F894FFCFA9
S11345B400005B08200077556C747261736F6E6938
S11345C4633B200000000000000000000000000025
S11345D400000000000000000000000000000000D3
S11345E400000000000000000057656174686572F3
S11345F473656E736F72315F50726573733B200021
S113460400000000000000000000000000000000A2
S11346140000000000000000000000576561746899
S1134624657273656E736F72315F54656D703B2090
S11346340000000000000000000000000000000072
S11346440000000000000000000000000057656145
S11346547468657273656E736F72315F48756D3B10
S11346642000000000000000000000000000000022
S113467400000000000000000000000000000057DB
S113468465617468657273656E736F72325F5072BC
S11346946573733B2000000000000000000000006C
S11346A40000000000000000000000000000000002
S11346B4005765617468657273656E736F72325FF7
S11346C454656D703B2000000000000000000000F1
S11346D400000000000000000000000000000000D2
S11346E40000005765617468657273656E736F7258
S11346F4325F48756D3B200000000000000000009C
S113470400000000000000000000000000000000A1
S11347140000000000202A2A2A206D6D6320696E9F
S11347246974206F7220666174206C6F6164206602
S113473461696C6564202A2A2A200000202A2A2A16
S11347442073746172746C79202A2A2A2000002050
S11347542A2A2A206F6B656C79202A2A2A200000D1
S1134764202A2A2A206265666F726520696E6E6546
S113477472207772697465202A2A2A200000202A6C
S11347842A2A20616674657220696E6E65722077C8
S1134794726974652066696C65206F70656E202A81
S11347A42A2A200000202A2A2A206166746572209D
S11347B4696E6E65722077726974652066696C65CA
S11347C4207365656B202A2A2A200000202A2A2ABD
S11347D420616674657220696E6E657220777269F1
S11347E474652066696C65207772697465202A2A69
S11347F42A200000202A2A2A20616674657220690E
S11348046E6E6572207772697465202A2A2A2000E4
S113481400202A2A2A206E6F742065786973746CC8
S113482479202A2A2A200000202A2A2A206265665E
S11348346F7265207772697465202A2A2A20000021
S1134844202A2A2A20616674657220777269746545
S1134854202A2A2A200000212121494D504F525454
S1134864414E542121212D3E000049443B446174AE
S11348746554696D653B4C4449443B4469737461B4
S11348846E6365000049443B4461746554696D6515
S11348943B4D6F64756C653B4572726F72000049E1
S11348A4443B4461746554696D653B4D6F64756C38
S11348B4653B56616C7565000031000D202F2F2F68
S11348C42072656164696E67206E6F77203D3D3D9B
S11348D4200D000D203D3D3D2072656164696E67C5
S11348E420656E64202F2F2F200D000D204C494E7F
S11348F445204E4F5420464F554E44202121210D2E
S1134904003B4441544554494D453B004C442E43DB
S113491453560045442E4353560047442E4353569E
S1134924004552524F5220426174746572790053A7
S11349346572766F3B206572726F72206261747463
S1134944657279004552524F52204472697665006B
S1134954536572766F3B206572726F72206472695C
S11349647665004552524F5220566F6C74616765E8
S113497400536572766F3B206572726F7220766F96
S11349846C74616765006E6F204552524F52006526
S10D4994787472616472697665003C
S9030000FC
