:1000000074C00000A2C00000A0C00000BBC6000079
:10001000F9C600009AC0000098C0000096C0000019
:1000200094C0000092C0000090C000008EC000008C
:100030008CC000008AC0000088C0000086C000009C
:1000400084C0000082C0000080C000003DC70000E6
:100050007CC000007AC0000078C0000076C00000BC
:1000600074C0000040C3000070C000006EC00000FB
:100070006CC000006AC0000068C0000066C00000DC
:1000800064C0000062C0000060C000005EC00000EC
:100090005CC000005AC0000058C0000056C00000FC
:1000A00054C0000052C0000050C000004EC000000C
:1000B0004CC000004AC0000048C0000086C60000D6
:1000C00044C0000042C0000067C600003EC00000FF
:1000D0003CC000003AC0000038C0000036C000003C
:1000E00034C00000C0024C14C41511241FBECFEF51
:1000F000D1E2DEBFCDBF00E00CBF15E0A0E0B2E072
:10010000E8E2F6E400E00BBF02C007900D92AC3EBF
:10011000B107D9F728E0ACEEB5E001C01D92AD35CE
:10012000B207E1F710E0C5E7D0E000E006C0219794
:100130000109802FFE010E949121C237D10780E082
:100140000807A9F7BBD50C9412235ACFCF92DF92A0
:10015000FF920F931F93CF93DF93C42F6901862FD4
:10016000880F6BD2F82E811112C08C2F8BD210E029
:100170000115110551F0E6010C0D1D1D899182D26A
:10018000811108C0C017D107C9F7A4D205C0FF2448
:10019000F39402C0FF24F3948F2DDF91CF911F9130
:1001A0000F91FF90DF90CF9008950F93CF93DF933F
:1001B000EC01188282E6898384E08A8388E08B835D
:1001C0001C8237D201E020E030E040E06981CE01BE
:1001D000BDDF1882DF91CF910F910895BF92CF922A
:1001E000DF92EF92FF920F931F93CF93DF93D42F61
:1001F0006901C62FCC0F8C2F20D2811122C08D2FE8
:1002000041D268D281E08C0F18D2B82E81111CC067
:10021000013069F0E601E02EF12C81E0E81AF108E6
:10022000EC0CFD1C41D28993CE15DF05D9F710E007
:1002300001501109E601C00FD11F41D288834AD273
:1002400005C0BB24B39402C0BB24B3948B2DDF91B3
:10025000CF911F910F91FF90EF90DF90CF90BF90C3
:100260000895EF92FF920F93CF93DF931F921F9207
:10027000CDB7DEB77C01FC0110829C012E5F3F4FA1
:1002800001E040E0618162DF9E012F5F3F4F41E06E
:10029000F7016181C701A2DF898180FF0CC001E005
:1002A0009E012F5F3F4F41E0F7016181C70196DF5B
:1002B000898180FDF4CF02E09E012F5F3F4F4FE820
:1002C000F7016181C7018ADF898190E0982F882733
:1002D0002A8131E0F7013083820F911D0F900F903A
:1002E000DF91CF910F91FF90EF900895A2D185E318
:1002F0008A95F1F700005A9AE9E6F0E08081806281
:100300008083EA9A08958F929F92AF92BF92CF9284
:10031000DF92EF92FF920F931F93CF93DF93EB0146
:100320005A01490180ED89D180E0ACD1D3D181ED72
:1003300084D1BAD18F77282F30E035952795359520
:1003400027953595279535952795922F990F290F44
:10035000220F821BF6018083A7D1282F30E035952C
:100360002795359527953595279535952795922F7E
:10037000990F290F220F821BF701808395D1282F17
:1003800030E0359527953595279535952795359501
:100390002795922F990F290F220F821BF801808336
:1003A00083D182D1282F30E0359527953595279533
:1003B0003595279535952795922F990F290F220F5F
:1003C000821BF401808370D1282F30E0359527956A
:1003D000359527953595279535952795922F990F22
:1003E000290F220F821BF501808369D1282F30E06D
:1003F00035952795359527953595279535952795E5
:10040000922F990F290F220F821B888363D1DF91CE
:10041000CF911F910F91FF90EF90DF90CF90BF9001
:10042000AF909F908F900895BF92CF92DF92EF92FE
:10043000FF920F931F93CF93DF9300D000D0CDB7DF
:10044000DEB7B62E19821A821B821C821D821E8282
:100450009E012A5F3F4F69012150310979018E01C8
:100460000C5F1F4F22503109AE014E5F5F4FBE013E
:100470006F5F7F4F48DF6D816B0D6C3310F46D83C0
:100480000EC06C536D838C8191E0980F983110F4FD
:100490009C8305C087518C838B818F5F8B831E82E9
:1004A00080EDCBD087E0EED08E811DEC819F912D29
:1004B0001124969596959695292F220F920F990FB4
:1004C000890FE0D08D81819F912D1124969596956D
:1004D0009695292F220F920F990F890FD3D08C81D7
:1004E000819F112D1124169516951695912F990F10
:1004F000190F110F810FC6D080E8C4D0EBD081E076
:1005000026960FB6F894DEBF0FBECDBFDF91CF9118
:100510001F910F91FF90EF90DF90CF90BF900895C3
:10052000CF9380ED8AD08EE0ADD0D4D081ED85D050
:10053000C6D0C82FCFD0CC2351F080ED7ED08EE036
:10054000A1D08C2F81609ED08EE09CD0C3D0CF9163
:100550000895CF9380ED71D08FE094D0BBD081ED22
:100560006CD0ADD0C82FB6D080ED67D08FE08AD0E8
:100570008C2F8E7F87D08FE085D0ACD0CF9108951F
:100580008CEE95E0B3CE08954AE050E060E070E074
:100590000C94F1220895FC011182108212821682BD
:1005A000158214821382178210861186EDCF08956A
:1005B0004AE050E060E070E00C94DC220895CF93B4
:1005C000DF93EC011D861C866111E5DFCE01F0DFB3
:1005D000DF91CF9108952CEF30E0FC013387228723
:1005E00081E00895FC01828593850C94EC220895A6
:1005F000FC0122853385C9010296938782870C947A
:10060000EC220895FC018485958501969587848761
:10061000228533852E5F3F4F33872287218530E047
:100620008217930720F01586148680E0089581E0F4
:10063000089588E48093B8000895ECEBF0E0108210
:1006400094EA908390819923ECF79091B900987F78
:100650009830A1F48093BB0084E88093BC00ECEB5D
:10066000F0E080818823ECF79091B900987F983171
:1006700039F081E0903429F480E0089581E0089514
:1006800080E008958093BB0084E88093BC00ECEB8D
:10069000F0E080818823ECF79091B900987F81E0A9
:1006A000983209F480E0089584EC8093BC00ECEB70
:1006B000F0E080818823ECF78091BB00089584E806
:1006C0008093BC00ECEBF0E080818823ECF7809114
:1006D000BB00089584E98093BC00ECEBF0E08081DE
:1006E00084FDFDCF08951F920F920FB60F92112433
:1006F0008F938091C6008093F0058091F0058095DE
:1007000088B98F910F900FBE0F901F90189510927F
:10071000C50088E08093C40088E98093C1000895F3
:100720008F929F92AF92BF92EF92FF920F931F937F
:10073000CF93DF93CDB7DEB72B970FB6F894DEBF1C
:100740000FBECDBFDC01CB017A01BB2374F0009753
:10075000A105B10509F467C010E00F2EFAE08F2E55
:10076000912CA12CB12CF02D2CC00097A105B10526
:1007700001F110E00F2EFAE08F2E912CA12CB12C5C
:10078000F02D00E3BC01CD01A50194010E94D21F10
:10079000DA01C901E1E0F0E0EC0FFD1FE10FF11D0E
:1007A000202F261B20831F5F0097A105B10551F75D
:1007B00001C010E0FE01E10FF11D8DE281831F5F9A
:1007C00015C0BC01CD01A50194010E94D21FDA0120
:1007D000C901E1E0F0E0EC0FFD1FE10FF11D605DEC
:1007E00060831F5F232B242B252B59F7F7010190E2
:1007F0000020E9F731979F012E193F09822F412FE1
:1008000050E0415051097AF0E1E0F0E0EC0FFD1FBB
:10081000E10FF11D120FD701A80FB11D92919C930A
:100820008F5F1813F8CF2B960FB6F894DEBF0FBE6C
:10083000CDBFDF91CF911F910F91FF90EF90BF90AF
:10084000AF909F908F900895BF92CF92DF92EF92DA
:10085000FF920F931F93CF93DF9300D000D0CDB7BB
:10086000DEB7B82E19821A821B821C821D821E825C
:10087000AE014A5F5F4F6A01CE0105967C018E0191
:100880000C5F1F4F9E012D5F3F4F44505109BE0129
:100890006F5F7F4F8CEE95E036DD0B2D10E0ECE3C3
:1008A000F0E0CF01B8010E949D1F362F262F8D81C9
:1008B000AF01481B5109CA01B8010E949D1F8C81DC
:1008C0008F5F883111F08C3041F08D81260F8B0DB8
:1008D0008C3330F48111FACF03C0232F220FF5CFD0
:1008E000822F26960FB6F894DEBF0FBECDBFDF91E4
:1008F000CF911F910F91FF90EF90DF90CF90BF901D
:1009000008952F923F924F925F926F927F928F92B3
:100910009F92AF92BF92CF92DF92EF92FF920F938E
:100920001F93CF93DF93CDB7DEB7CA5BD1400FB62D
:10093000F894DEBF0FBECDBFCA54DE4F8883C65BBE
:10094000D140CC54DE4F79836883C45BD1400F2EF5
:10095000FCEECF2EF5E0DF2EF02DD6018D919C918F
:10096000119701968D939C93C601F3DDCA54DE4F17
:100970006881C65BD140C60157DDA89567E7CE0107
:1009800001960E94C815CE0101960E949A1E8C0104
:10099000A895CE0101960E94881E2C01990F660829
:1009A0007708A895CE0101960E94AC1E1C01A8955F
:1009B000CE0101960E94D31EC954DE4F99838883CD
:1009C000C75BD140A895CE0101960E94C11E4C0183
:1009D000990FAA08BB08A895CE0101960E94E51EB2
:1009E000C754DE4F99838883C95BD140A8958AE1BB
:1009F00096E00E94FF147C01A895CC54DE4FE8815C
:100A0000F981C45BD140808190E0D6012D913C9169
:100A1000281739076CF18091EF05882329F010928F
:100A2000EF058091EE0580831092ED051092EC05A4
:100A3000A89582EF95E00E948D13811119C0CC54C6
:100A4000DE4FE881F981C45BD14080818093EE055F
:100A5000CA54DE4F8881C65BD140F6DECC54DE4FEF
:100A6000A881B981C45BD1408C9381E08093EF056C
:100A7000A8958DE0E8E0F2E0DE01A65BBF4F0190B3
:100A80000D928A95E1F7EAE4F0E0EC0FFD1F3D9648
:100A900085E2DF011D928A95E9F7A89587E1EAE3EF
:100AA000F2E0DE01A458BF4F01900D928A95E1F764
:100AB0002BE1ECE7F0E0EC0FFD1F7796DF01322F22
:100AC0001D923A95E9F7A89586E1ECE6F2E0DE01A1
:100AD000A255BF4F01900D928A95E1F79CE1EEEA95
:100AE000F0E0EC0FFD1F7696DF01392F1D923A954D
:100AF000E9F7A89585E1EEE9F2E0DE01A052BF4FEB
:100B000001900D928A95E1F78DE1E0EEF0E0EC0FB7
:100B1000FD1F7596DF01382F1D923A95E9F7A895CC
:100B200037E1E0EDF2E0DE01AE5EBE4F01900D92E6
:100B30003A95E1F7E2E1F1E0EC0FFD1F7796DF0176
:100B40001D922A95E9F7A89526E1E2E0F3E0DE019F
:100B5000AC5BBE4F01900D922A95E1F7E4E4F1E021
:100B6000EC0FFD1F7696DF011D929A95E9F7A89587
:100B700095E1E4E3F3E0DE01AA58BE4F01900D9247
:100B80009A95E1F7E6E7F1E0EC0FFD1F7596DF01BE
:100B90001D928A95E9F7A895B70180E090E0AE0133
:100BA000465B5F4FBDDDB80180E090E0AE01445888
:100BB0005F4FB6DDAE0142555F4FC301B201B0DDFC
:100BC000B10180E090E0AE0140525F4FA9DDC95411
:100BD000DE4FE881F981C75BD140BF0180E090E042
:100BE000AE014E5E5E4F9CDDAE014C5B5E4FC501BB
:100BF000B40196DDC754DE4F28813981C95BD140ED
:100C0000B90180E090E0AE014A585E4F89DDA895B9
:100C1000CE0188559E4F9FD2A895BE01665B7F4F3F
:100C2000CE0188559E4F93D1A895BE0164587F4F41
:100C3000CE0188559E4F8BD1A895BE0162557F4F3E
:100C4000CE0188559E4F83D1A895BE0160527F4F3B
:100C5000CE0188559E4F7BD1A895BE016E5E7E4F1A
:100C6000CE0188559E4F73D1A895BE016C5B7E4F17
:100C7000CE0188559E4F6BD1A895BE016A587E4F14
:100C8000CE0188559E4F63D1C654DE4F0FB6F894FF
:100C9000DEBF0FBECDBFDF91CF911F910F91FF90AF
:100CA000EF90DF90CF90BF90AF909F908F907F900C
:100CB0006F905F904F903F902F900895CF93DF9368
:100CC000CDB7DEB72F970FB6F894DEBF0FBECDBFFE
:100CD0001EDD789460E0CE01019671DCDB808C81B2
:100CE0008F8783B7817F846083BF8C819D81909340
:100CF000ED058093EC058CEE95E012DCA895E0E61E
:100D0000F0E088E1808388E2808398E288E10FB692
:100D1000F894A895809360000FBE90936000A8950A
:100D200002E011E00F2EF8E1EF2EF02D0F2EF8E289
:100D3000FF2EF02DF801808188608083BE01615F05
:100D40007F4F8D2DDEDDF8018081877F80830FB698
:100D5000F894A8958091600088618093600010925B
:100D600060000FBE83B7816083BF889583B78E7F95
:100D700083BF0FB6F894A895E09260000FBEF09282
:100D80006000D8CF1F920F920FB60F9211240F90D0
:100D90000FBE0F901F9018951F920F920FB60F92D3
:100DA00011240BB60F928F93EF93FF93EAE1F6E0D5
:100DB00081818F5F8183FF91EF918F910F900BBEA7
:100DC0000F900FBE0F901F9018951F920F920FB6A5
:100DD0000F9211240BB60F928F93EF93FF934F9BBB
:100DE00007C0E1E2F1E08081887F80835F98EB9A21
:100DF000FF91EF918F910F900BBE0F900FBE0F9050
:100E00001F9018951F920F920FB60F9211240BB6D8
:100E10000F920F931F932F933F934F935F936F9373
:100E20007F938F939F93AF93BF93CF93DF93EF9372
:100E3000FF934B9B0AC01092250110922401E1E21E
:100E4000F1E080818160808328C0E1E2F1E080816F
:100E5000887F8083EB98F89404E211E0F801208108
:100E60003181CAE1D6E06981862F90E0A0E0B0E050
:100E7000DC0199278827BC01CD01620F731F811DFA
:100E8000911D48EC50E00E948D149B838A837894D6
:100E900081E08883F80111821082FF91EF91DF9148
:100EA000CF91BF91AF919F918F917F916F915F9102
:100EB0004F913F912F911F910F910F900BBE0F906B
:100EC0000FBE0F901F9018951F920F920FB60F92A2
:100ED00011240BB60F922F933F934F935F936F9311
:100EE0007F938F939F93AF93BF93EF93FF9382EF83
:100EF00095E00E94FC12FF91EF91BF91AF919F91FD
:100F00008F917F916F915F914F913F912F910F90B2
:100F10000BBE0F900FBE0F901F901895CF93DF93CD
:100F2000EC018DE893E00E94AB1162E78881998122
:100F300017D7811108C080EA93E00E94AB110E948C
:100F4000AE0F81E001C080E0DF91CF9108956F92F4
:100F50007F928F929F92AF92BF92CF92DF92EF9249
:100F6000FF920F931F93CF93DF93CDB7DEB72B97ED
:100F70000FB6F894DEBF0FBECDBF5C018B018DB6FE
:100F80009EB6FB0101900020E9F73197CF01861B47
:100F9000970B2BE0E2E5F5E0DE01119601900D9252
:100FA0002A95E1F7F5012281338162177307A1F1D8
:100FB0009E012F5F3F4F6901F90101900020E9F781
:100FC0003197AF01421B530BFB0101900020E9F761
:100FD0003197E61BF70B4E0F5F1F4F5F5F4F8DB7CB
:100FE0009EB7841B950B0FB6F8949EBF0FBE8DBFA6
:100FF000EDB7FEB731967F016E2E7F2C6AE075E06B
:10100000CF010E94CD22B601C7010E94C222B801C1
:10101000C7010E94C22210C02DB73EB7281B390B52
:101020000FB6F8943EBF0FBE2DBF8DB79EB7019689
:10103000682E792E0E94C22281EB93E00E94AB11B0
:1010400062E7F501808191818BD68FEC93E00E945D
:10105000AB1160914A0870914B0880914C089091B7
:101060004D0887D786EF93E00E94AB11862D972D10
:101070000E94DC108DE0EED78AE0ECD78DE194E0A1
:101080000E94AB116BD785E494E00E94AB110FB6C0
:10109000F8949EBE0FBE8DBE2B960FB6F894DEBFA1
:1010A0000FBECDBFDF91CF911F910F91FF90EF90B9
:1010B000DF90CF90BF90AF909F908F907F906F9078
:1010C0000895CF93DF93EC0129DF811119C082E6E7
:1010D00094E00E94AB11888199810E94AB1163E674
:1010E000888199813DD63AD789E794E00E94AB1177
:1010F0006A817B81CE012BDF81E994E00E94AB11F4
:10110000DF91CF910895CF93DF93EC0179836883CA
:101110005B834A831C821D821E821F821886198669
:101120001A861B8688EA94E00E94AB118881998117
:101130000E94AB11CE01C5DFDF91CF9108954BEB3B
:1011400054E06DE575E0DFCF089546ED54E064E6C8
:1011500075E0D9CF089540EF54E06BE675E0D3CF4A
:1011600008951092220646E356E00C943211089539
:10117000CF92DF92EF92FF920F931F93CF93DF9363
:10118000009146081091470820914808309149087D
:10119000061717072807390731F16B017C01809189
:1011A0002206813041F41092220646E356E0C9013E
:1011B000B8010E943211C0E4D8E08E819F81A885D9
:1011C000B98580931E0690931F06A0932006B093C6
:1011D000210646E356E0C701B6010E947211CE8295
:1011E000DF82E886F98681E0DF91CF911F910F9130
:1011F000FF90EF90DF90CF900895CF92DF92EF9223
:10120000FF920F931F93CF93DF936B017C01C42F49
:10121000D0E00EE116E0C701B6016D0F711D811D12
:10122000911DA6DF3091F105E6E3F6E080E090E065
:101230002081222311F0253E89F43F5F3C130FC02B
:1012400096958795929582958F7089279F708927AB
:10125000809350081092F10581E00FC030E0809635
:10126000B096811522E0920719F73093F105DF5F00
:10127000F8018589D81778F280E0DF91CF911F912E
:101280000F91FF90EF90DF90CF9008950F931F93F1
:101290009B01AC012250310941095109EEE1F6E010
:1012A000A589B0E00E94FD1F058516852785308938
:1012B000600F711F821F931F1F910F9108950F934D
:1012C0001F93EEE1F6E00585168527853089601BC2
:1012D000710B820B930B258930E040E050E00E94B7
:1012E000B01FCA01B9016E5F7F4F8F4F9F4F1F9193
:1012F0000F9108950F931F93E0E4F8E0DC01A65BE3
:10130000B94F4D915C9160E070E0BA0155274427D8
:10131000DC01A05BB94F0D911C9120E030E0402B27
:10132000512B622B732B418B528B638B748BDC01A3
:10133000AE5AB94F8D919D910D90BC91A02D828791
:101340009387A487B5871F910F9108952F923F929D
:101350004F925F926F927F928F929F92AF92BF92C5
:10136000CF92DF92EF92FF920F931F93CF93DF9371
:101370002B013C016A01212C46E356E05301420156
:10138000820C911CA11CB11CC501B401ABD7809289
:10139000460890924708A0924808B0924908C6E3D0
:1013A000D6E000E010E08881882309F45AC09B85CC
:1013B000903119F0903209F045C0853E09F442C0E1
:1013C000312C912CC801825E994F7C01F701E90D07
:1013D000F11D808C90E2891202C0939415C0F60131
:1013E000E30DF11D80818E3229F487E0891578F4B0
:1013F00033940AC090E00E94BA22282D30E02817CA
:10140000390729F4339493949AE09915F8F68BE010
:10141000981218C0C0E4D8E0C801969587959295B7
:1014200082958F7089279F708927888BC80162DF1A
:101430008E819F81A885B9858D8B9E8BAF8BB88F50
:1014400081E00FC0005E1F4FA096011592E01907C2
:1014500009F0A9CF239480913306281608F48CCF85
:1014600080E0DF91CF911F910F91FF90EF90DF907F
:10147000CF90BF90AF909F908F907F906F905F9034
:101480004F903F902F9008952F923F925F926F92CE
:101490007F928F929F92AF92BF92CF92DF92EF9204
:1014A000FF920F931F93CF93DF9300D01F92CDB77E
:1014B000DEB79C838B83562E49015A016701780160
:1014C00081E0809322060091500880E2089F80010D
:1014D0001124F801EA5CF94FFA83E983CF014596BC
:1014E00011928E179F07E1F769807A80312C10E006
:1014F0006894222425F8F3012082183070F5EB81DE
:10150000FC81E30DF11D80818E3251F190E00E944B
:10151000BA22F3018083339423C03394EB81FC819E
:10152000E30DF11D8081882331F090E00E94BA2202
:10153000F30180833394FFEF6F1A7F0A1F5F1B3024
:10154000D1F6E981FA815386B58AA48A938E828E78
:10155000C48ED58EE68EF78E06C01830F9F6DDCF34
:10156000183049F7DACF0F900F900F900F90DF915E
:10157000CF911F910F91FF90EF90DF90CF90BF9090
:10158000AF909F908F907F906F905F903F902F9043
:101590000895CF92DF92EF92FF920F931F932091C5
:1015A0003406203181F56B017C01CC0CDD1CEE1C76
:1015B000FF1CB701A601032E39E076956795579574
:1015C00047953A95D1F7302D80912F0690913006AE
:1015D000A0913106B09132068A019B01080F191FB4
:1015E0002A1F3B1FC901B801C3DD11E0D122EE243F
:1015F000FF24C6014896FC01E25EF94F60817181CB
:1016000080E090E033C06B017C01CC0CDD1CEE1C53
:10161000FF1CCC0CDD1CEE1CFF1CB701A601032E29
:1016200039E076956795579547953A95D1F7302DDE
:1016300080912F0690913006A0913106B09132062C
:101640008A019B01080F191F2A1F3B1FC901B801FE
:101650008FDD11E0D122EE24FF24C6014896FC0163
:10166000E25EF94F60817181828193811F910F91B8
:10167000FF90EF90DF90CF900895CF92DF92EF929E
:10168000FF920F931F93CF93DF938C01C09023069B
:10169000D0902406E0902506F0902606C114D104CF
:1016A000E104F10421F5809134068031C1F4F12C7C
:1016B000CEE1D6E089859A85AB85BC85BC01CD019C
:1016C0006F0D711D811D911DA80140DE8130B1F1AA
:1016D0008D89F80E8FE18F1568F780E02FC0C090DC
:1016E0002706D0902806E0902906F0902A06CEE141
:1016F000D6E00CC0C701B601C9DDA80127DE8130E4
:10170000E9F0C701B60145DF6B017C0188EFC8161F
:101710008FEFD806E8068FE0F80618F08E89803241
:1017200061F088EFC8168FEFD806E104F10410F3DA
:101730008E898031F9F680E001C080E0DF91CF91A1
:101740001F910F91FF90EF90DF90CF9008952F920F
:101750003F924F925F926F927F928F929F92AF9241
:10176000BF92CF92DF92EF92FF920F931F93CF938E
:10177000DF931B012C018ADDE6E3F8E060837183CF
:10178000828393838091330690E0958384837201F2
:101790006101C0E0D0E08F010F2EFEE16F2EF6E078
:1017A0007F2EF02DC701B601F4DE460157012FEF61
:1017B000821A920AA20AB20A681579058A059B055F
:1017C000A1F4F3012589F80144815581FA01E20F62
:1017D000F11D9F01F8013583248321966B017C0163
:1017E000C115F1E0DF07F1F609C0C0923C08D092C4
:1017F0003D08E0923E08F0923F080EC052014101C0
:101800002FEF921AA20AB20A80923C0890923D08E9
:10181000A0923E08B0923F08DF91CF911F910F91A7
:10182000FF90EF90DF90CF90BF90AF909F908F9000
:101830007F906F905F904F903F902F9008958F9280
:101840009F92AF92BF92CF92DF92EF92FF920F934F
:101850001F93CF93DF934B015C0105C08FEF881A74
:10186000980AA80AB80AC501B40193DE672B682B51
:10187000692BA1F7C501B40109DDE6E3F8E0608357
:101880007183828393838091330690E09583848370
:1018900075016401EFEFCE1ADE0AEE0AFE0AFFEFD1
:1018A0009F1AAF0ABF0AC6E3D8E00EE116E0C701EF
:1018B000B6016FDE672B682B692B91F4F80125893F
:1018C0008C819D81820F911D9D838C83FFEFCF1AA8
:1018D000DF0AEF0AFF0AC814D904EA04FB0439F747
:1018E000DF91CF911F910F91FF90EF90DF90CF90FC
:1018F000BF90AF909F908F9008958F929F92AF92DC
:10190000BF92CF92DF92EF92FF920F931F93490104
:101910005A0120913406203171F56B017C01CC0C09
:10192000DD1CEE1CFF1CB701A601032E39E07695E5
:101930006795579547953A95D1F7302D80912F06A9
:1019400090913006A0913106B09132068A019B0138
:10195000080F191F2A1F3B1FC901B80109DC11E03C
:10196000D122EE24FF24C6014896FC01E25EF94F25
:101970009182808233C06B017C01CC0CDD1CEE1C9B
:10198000FF1CCC0CDD1CEE1CFF1CB701A601032EB6
:1019900039E076956795579547953A95D1F7302D6B
:1019A00080912F0690913006A0913106B0913206B9
:1019B0008A019B01080F191F2A1F3B1FC901B8018B
:1019C000D7DB11E0D122EE24FF24C6014896FC01AA
:1019D000E25EF94F80829182A282B38281E080939D
:1019E00022061F910F91FF90EF90DF90CF90BF9054
:1019F000AF909F908F9008952F923F924F925F9259
:101A00007F928F929F92AF92BF92CF92DF92EF928E
:101A1000FF920F931F93CF93DF931F921F92CDB727
:101A2000DEB79A838983762EC0902306D090240651
:101A3000E0902506F0902606C114D104E104F104DB
:101A400049F4EEE1F6E0C184D284E384F48486892B
:101A5000803119F00EE116E017C010E041E0C70137
:101A6000B601610F711D811D911DC7DB813009F425
:101A7000B5C080913306180F103280F3AFC06B01F0
:101A80007C0102C06B017C01C701B601FFDB41E0B4
:101A9000B4DB813009F4A2C08090460890904708DA
:101AA000A0904808B0904908C701B60172DD683FB0
:101AB0002FEF720782072FE0920720F0F8012689A6
:101AC000203251F0683FFFEF7F0781059105B8F2A2
:101AD000F80126892031B1F66091360870913708F7
:101AE0008091380890913908EADB1B012C019B0199
:101AF000AC01C701B60101DF2FEF3FEF4FEF5FE011
:101B0000C201B101FADE60914608709147088091E8
:101B100048089091490846E356E0A4D3E6E3F8E08C
:101B200086E396E01292E817F907E1F7512C0EE1EF
:101B300016E001C0592EE6E3F8E080819181A28190
:101B4000B381BC01CD01650D711D811D911D09DBA6
:101B500091E0950DF8018589581660F3E6E3F8E009
:101B6000208031804280538020924608309247087E
:101B70004092480850924908C501B401A0DB609327
:101B80003C0870933D0880933E0890933F0841E0E5
:101B9000C201B10132DB80913A0890913B0840913B
:101BA0003306242F30E028173907A8F4E6E3F8E0DD
:101BB000C080D180E280F38046015701840E911CE1
:101BC000A11CB11C80829182A282B382821B930BE2
:101BD0009583848303C0C701B60131DE8091460836
:101BE00090914708A0914808B09149088093550802
:101BF00090935608A0935708B09358080F2EF6E319
:101C0000CF2EF8E0DF2EF02DF60160817181828108
:101C1000938155DB9B01AC0160935108709352088E
:101C20008093530890935408F601668377838087E6
:101C3000918710924A0810924B0810924C0810920B
:101C40004D08E12CF12C8701672D89819A811CDCDC
:101C50006091460870914708809148089091490822
:101C600046E356E0FFD2F60180819181A281B381E3
:101C70008093460890934708A0934808B09349087A
:101C80000F900F90DF91CF911F910F91FF90EF90E8
:101C9000DF90CF90BF90AF909F908F907F905F909C
:101CA0004F903F902F9008954F925F926F927F9246
:101CB0008F929F92AF92BF92CF92DF92EF92FF925C
:101CC0006B017C0129013A0160913C0870913D084B
:101CD00080913E0890913F08A70196010EDEC41442
:101CE000D504E604F70499F0460157018FEF881AEE
:101CF000980AA80AB80AA5019401C701B601FDDD3A
:101D000075016401481459046A047B0469F72FEFD4
:101D10003FEF4FEF5FE0C301B201EFDD40923C08BF
:101D200050923D0860923E0870923F081092220641
:101D30006091460870914708809148089091490841
:101D400046E356E08FD2FF90EF90DF90CF90BF90A8
:101D5000AF909F908F907F906F905F904F9008957D
:101D60000F931F93CF93DF93EC01162F86DC813006
:101D7000C1F4123751F500E418E0F8016189728965
:101D800083899489E4DCF801D787C6876091360897
:101D9000709137088091380890913908E9D980E02E
:101DA00019C0811114C01336A1F4D0934F08C09309
:101DB0004E0862E070E080E090E041DD60E2CE013C
:101DC0001BDE81E08093220605C082E003C082E032
:101DD00001C082E0DF91CF911F910F9108954F9242
:101DE0005F926F927F928F929F92AF92BF92CF92AB
:101DF000DF92EF92FF920F931F93CF93DF93A0E4B4
:101E0000B8E0ED91FC9111971296CD90DD90ED9098
:101E1000FC901597CE0EDF1EE11CF11C1A968D91D9
:101E20009D910D90BC91A02D8C159D05AE05BF0513
:101E300008F05AC08090460890904708A090480843
:101E4000B0904908309709F059C062C01192E81764
:101E5000F907E1F781E08093220610C030DA2B0108
:101E60003C01609136087091370880913808909154
:101E7000390825DAA301920117DF11C0C501B401A9
:101E80001EDA2B013C016091360870913708809171
:101E900038089091390813DAA301920105DFC0E4F4
:101EA000D8E06D897E898F89988D62D9E88980E232
:101EB000E89FF0011124EE5AF94FC082D182E282EC
:101EC000F382CA86DB86EC86FD8680923608909285
:101ED0003708A0923808B092390881E08093220632
:101EE000C501B40145D929C06091460870914708E1
:101EF000809148089091490834D91FC0E11582E0CB
:101F0000F80708F0BBCFEA5CF94F86E398E09ECF74
:101F1000C501B40161507109810991090091360828
:101F200010913708209138083091390860177107EF
:101F30008207930708F4B3CF91CFDF91CF911F9120
:101F40000F91FF90EF90DF90CF90BF90AF909F9058
:101F50008F907F906F905F904F90089540DFE0E406
:101F6000F8E011821082128213821482158281E0BD
:101F700008958F929F92AF92BF92CF92DF92EF928D
:101F8000FF920F931F93CF93DF934B015C0127DFE9
:101F9000C0E4D8E069897A898B899C89D8DB409133
:101FA00036085091370860913808709139081A82C4
:101FB0001B821C821D82811482E09806A104B10458
:101FC000A8F1750164018E01C6E3D8E0E2E0DE1AF3
:101FD000E108F108F80182819381A481B5819E5FB7
:101FE000AF4FBF4F82839383A483B5838C819D8140
:101FF00001979D838C83892B29F04F5F5F4F6F4F33
:102000007F4F0AC06E817F8188859985C2DA9FDB08
:10201000488159816A817B81C114F2E0DF06E104C5
:10202000F104A0F681E09822AA24BB24CB01BA01D6
:102030009FD89092410880924008DF91CF911F91E4
:102040000F91FF90EF90DF90CF90BF90AF909F9057
:102050008F900895CF92DF92EF92FF920F931F938C
:10206000CF93DF93E0E4F8E020813181A9014F5F55
:102070005F4F51834083F901E25EF94F808F411534
:10208000524009F090C0C0E4D8E0198218828A81D9
:102090009B81AC81BD819E5FAF4FBF4F8A839B8385
:1020A000AC83BD836E817F818885998546E356E048
:1020B000D9D04E815F8168857985DB01CA0101969F
:1020C000A11DB11D8E839F83A887B987E6E3F8E041
:1020D00084819581019795838483892B09F049C078
:1020E0000A811B812C813D818A859B85AC85BD85BC
:1020F00080179107A207B30740F50EE116E0F8013B
:102100001482CB01BA01DBD86B017C01C6E3D8E0B5
:10211000688179818A819B81D2D8A7019601C4DD2B
:102120006E817F81888599858ADB88819981AA81E2
:10213000BB818093460890934708A0934808B093CA
:10214000490881E0F801848314C0C6E3D8E06E81B9
:102150007F81888599851DDAFADA88819981AA813B
:10216000BB818093460890934708A0934808B0939A
:102170004908E0E4F8E042815381648175818285F9
:102180009385A485B58584179507A607B70758F0EA
:1021900060914608709147088091480890914908DD
:1021A00046E356E09FD0DF91CF911F910F91FF90B2
:1021B000EF90DF90CF900895CF93DF93EC0188816B
:1021C000882329F0219646DF89918111FCCF81E097
:1021D00080932206DF91CF9108958EBD0DB407FE46
:1021E000FDCF08958FEF8EBD0DB407FEFDCF8EB5E8
:1021F0000895289AF7CF0895FF920F931F93CF93D6
:10220000DF93C82FD42F152F062FF72EF2DF289833
:10221000E9DF8F3FE9F78C2F8064DFDF8F2DDDDF73
:10222000802FDBDF812FD9DF8D2FD7DFCC2389F003
:10223000C83061F081E0D1DFCC3009F4D3DFCAE0EF
:10224000D1DF88234CF4C150D9F706C087E8C5DF39
:10225000F6CF85E9C2DFF3CFDF91CF911F910F91C8
:10226000FF900895FF920F931F93CF93DF938A01FE
:102270002091350623FD09C0052E59E0660F771F12
:10228000881F991F5A95D1F7502DAB01BC0188E1E9
:10229000B3DFF82E81111EC0A5DF8F3FE9F78EEF67
:1022A0009CDFE8011E5F899198DFC017D107D9F73D
:1022B0008FEF93DF8FEF91DFC4E194DF8F71853073
:1022C00019F0C150D1F707C0CC2329F092DFFF24C9
:1022D000F39401C0F12C8F2DDF91CF911F910F91BD
:1022E000FF9008950F931F93CF93DF938A0120915E
:1022F000350623FD09C0052E59E0660F771F881F9C
:10230000991F5A95D1F7502DAB01BC0181E174DFC3
:10231000C82F811111C066DF8F3FE9F38E3F69F44A
:10232000E8011E5F5FDF8993C017D107D9F75ADF35
:1023300059DF5FDFC1E001C0C0E08C2FDF91CF919A
:102340001F910F910895E0ECF0E0908195FFFDCF93
:102350008093C6000895CF93DF93EC018881882392
:1023600029F02196F0DF89918111FCCFDF91CF9187
:102370000895CF93DF93FC0111A210A289E182A3FB
:1023800013A2A0E8B0E08C9182608C93C1E8D0E009
:102390008881886188838C91806A8C938FE39CE923
:1023A000909387008093860084B1806684B98FE61D
:1023B00097E190938D0080938C00AFE6B0E08C9114
:1023C00088608C9381E090E0918B808BDF91CF913E
:1023D000089521E030E0FC0131A320A31092850094
:1023E00010928400E1E8F0E08081826080830895AB
:1023F000E1E8F0E02081287F2083FC0111A210A2F7
:102400000895FC01118A108A6C32F1E07F0738F0E0
:102410006D3D25E0720728F06CED75E002C06CE2BE
:1024200071E04C32E1E05E0738F04D3DF5E05F07CA
:1024300028F04CED55E002C04CE251E0660F771FEA
:1024400061557B4F440F551F41555B4F7093890079
:1024500060938800FC017183608350938B004093EC
:102460008A0053834283B5CF0895EAE7F0E0808184
:102470008368808380E480937C0080818064808393
:10248000808186FDFDCF809178009091790008953C
:10249000CF93DF93CDB7DEB72C970FB6F894DEBF9E
:1024A0000FBECDBFFC01228D338D2230310579F472
:1024B00022E735E0358F248FCE0101960E94A508D2
:1024C00060E875E0CE0101960E94A7072BC021307D
:1024D000310581F425E935E0FC01358F248FCE01EB
:1024E00001960E94A50861EA75E0CE0101960E945E
:1024F000A70718C02330310581F424EB35E0FC0137
:10250000358F248FCE0101960E94A50862EC75E0FC
:10251000CE0101960E94A70705C027ED35E0FC011A
:10252000358F248F2C960FB6F894DEBF0FBECDBF2B
:10253000DF91CF910895FC01208931892230310546
:1025400039F421E030E0338F228FA2DF81E008955B
:10255000FC01138E128E9CDF80E00895DC01ECE715
:10256000F0E080818C7F8083EAE7F0E08081806406
:102570008083908196FDFDCF8091780090917900C5
:1025800095969C938E939497ECE7F0E08081816020
:102590008083EAE7F0E0808180648083908196FD0B
:1025A000FDCF809178009091790097969C938E93BF
:1025B000969794962D913C91959715963C932E93D2
:1025C000149717969C938E9316972832310510F422
:1025D000889750F083E090E05B969C938E935A9797
:1025E000CD0156DF81E008955B961C921E925A97AA
:1025F000CD014EDF80E00895CF93DF93EC018BA1F6
:102600008F5F8BA39AA18917F8F01BA2CE01A6DFDA
:102610008823A1F088A199A1029739F482E090E083
:10262000998B888BCE01E4DE0FC082E090E099A305
:1026300088A380EE95E09D878C8706C0CE01D8DE0A
:1026400081E090E0998B888B1B8E1A8ECE0120DF63
:10265000DF91CF910895CF93DF93EC01279AECE7B8
:10266000F0E080818E7F8083808182608083EAE7D2
:10267000F0E0808180648083808186FDFDCF809141
:102680007800909179009D8B8C8B48E0EAE7F0E030
:10269000A8E7B0E002C04150A1F08081806480834F
:1026A000808186FDFDCF8C899D899B8B8A8B2D91A6
:1026B0003C9111973D8B2C8B82279327887F892B08
:1026C00051F73F8F2E8FA8E6B5E30E94EE1F605BA7
:1026D0007C438F4F9F4F20EA36E841E050E00E9454
:1026E000B01F3D8B2C8B398F288F2798288D398DE3
:1026F0008E899F898217930730F01B8E1A8ECE0128
:10270000C7DE81E007C082E090E09B8F8A8FCE0118
:10271000BFDE80E0DF91CF9108956F927F928F921C
:102720009F92AF92BF92CF92DF92EF92FF920F9360
:102730001F93CF93DF93CDB7DEB76F970FB6F894A3
:10274000DEBF0FBECDBFE2E0F1E08081806180831B
:1027500082EF95E08ADE82EF95E07DDF82EF95E003
:102760007ADF882309F47DC060E0CE0101960E94E3
:10277000DF02CE0101960E94EB02882309F46DC0AE
:10278000EE24E394F12C0F2EFCE26F2EF02D772433
:10279000739402EF15E00F2EFBE3AF2EB12CF02D5A
:1027A000A895CE0101960E94F2024C01CE0101963D
:1027B0000E94F8022DED821625E0920610F0862C7C
:1027C000972C8D3DE5E09E0710F0862D972DF801A2
:1027D00020A131A121153105E9F7AC01B401C801EF
:1027E00010DEF801808991890097F1F3C801A3DE1A
:1027F000811135C0CE014B960E94D50084E090E057
:102800000E9499214C01B7010E94C222F40101905B
:102810000020E9F73197B182A082B601C4010E947D
:10282000C222CE010F960E949F08B401CE010F96DE
:102830000E94A707C4010E943122CE014B960E943C
:1028400031016C01CE0101960E940203FFEFEF1AE5
:10285000FF0A8111A5CF81E005C081E003C080E0BF
:1028600001C080E0E2E0F1E090819F7E90836F966E
:102870000FB6F894DEBF0FBECDBFDF91CF911F9191
:102880000F91FF90EF90DF90CF90BF90AF909F900F
:102890008F907F906F90089582EF95E06ACD0895B4
:1028A000FC0181E08083118213821282579A5F9823
:1028B000E3E7F0E080818160808384EB90E0909397
:1028C000290180932801E9E6F0E08081806480831B
:1028D00008950F931F93CF938B01AB014C5E5F4F15
:1028E00061E0C0E005C0E417F50721F4711111C0E3
:1028F000F801762F81919191208131812817390734
:1029000090F7DF0112972D933C93918380837C2F66
:10291000EACFCF911F910F9108954F925F926F92DE
:102920007F928F929F92AF92BF92CF92DF92EF925F
:10293000FF920F931F93CF93DF93EA01AAE6B8E1CA
:102940009B01AC010E94FD1F28EC30E040E050E00C
:102950000E94B01F29013A018EE592E0C89F9001C4
:10296000C99F300DD89F300D1124C901A0E0B0E0FF
:102970009C01AD012E5832474D4C5F4FACE3B0E0A7
:102980000E94FD1FDC01CB01A82EB92ECA2EDB2E22
:10299000E12CF12C00E010E020E030E749EC52EBB4
:1029A0006BE870E080E090E00E948520822E932EFC
:1029B000940140E050E0C301B2010E94B01FC90180
:1029C000DF91CF911F910F91FF90EF90DF90CF900B
:1029D000BF90AF909F908F907F906F905F904F903F
:1029E0000895FC012081222349F0108210921B06D9
:1029F0005F9AE1E2F1E080818160808308954F92E7
:102A00005F926F927F928F929F92AF92BF92CF927E
:102A1000DF92EF92FF920F931F93CF93DF93CDB787
:102A2000DEB764970FB6F894DEBF0FBECDBF8C0142
:102A3000E3E7F0E0808182608083AE014F5F5F4F0B
:102A40007A015E0155E1A50EB11C6701C801C9DF1D
:102A5000F8018081811104C0F80180818823E1F3AD
:102A6000F80182819381F601819391936F01EA15B8
:102A7000FB0561F7E3E7F0E080818D7F8083BE0195
:102A80006F5F7F4FC80125DF49845A848B859C8501
:102A9000480E591E56944794612C712CAFE5B0E056
:102AA000A30192010E94FD1F24E630E040E050E0C7
:102AB0000E94B01F49015A01A9E6B0E0A3019201AA
:102AC0000E94FD1F24E630E040E050E00E94B01F6D
:102AD00089019A0180E090E0F701419151917F01D5
:102AE00060E070E0481559056A057B0540F0041761
:102AF00015072607370720F421E0280F05C0982F77
:102B00008F5F8A3049F729E09217C0F4892FC12CD2
:102B1000D12C7601E82FF0E0EE0FFF1F41E050E0EE
:102B20004C0F5D1FE40FF51F40815181C40ED51E6F
:102B3000E11CF11C8F5F2813EDCF03C0C12CD12CF9
:102B4000760130E0291B3109032E000C440B550B94
:102B5000C701B6010E94B01FC90164960FB6F89470
:102B6000DEBF0FBECDBFDF91CF911F910F91FF90C0
:102B7000EF90DF90CF90BF90AF909F908F907F901D
:102B80006F905F904F9008958AE196E089CE089506
:102B90001F93CF93DF93EC01162F188219821A82AC
:102BA0001B821C821D821E821F82188619861A862D
:102BB0001B86188A198A1A8A1B8A0E941903C85B05
:102BC000DF4F1883DF91CF911F910895CF93DF934B
:102BD000D82FC62F862F880F0E941D03811115C084
:102BE0008D2F0E9442030E946A038C2F880F816000
:102BF0000E941D03811109C00E945F03C82FD0E00D
:102C00000E946A038C2F9D2F00C0DF91CF91089501
:102C1000CF92DF92EF92FF92CF93F82EC62F862F9E
:102C2000880F0E941D03811127C08F2D0E9442032F
:102C30000E946A038C2F880F81600E941D038111FE
:102C40001BC00E945403C82ED12CE12CF12CFE2C69
:102C5000ED2CDC2CCC240E945403C82AFE2CED2C35
:102C6000DC2CCC240E945F03C82A0E946A036C2DCE
:102C70007D2D8E2D9F2D00C0CF91FF90EF90DF9086
:102C8000CF9008952F923F924F925F926F927F92D2
:102C90008F929F92AF92BF92CF92DF92EF92FF926C
:102CA0000F931F93CF93DF93CDB7DEB7AD970FB6DA
:102CB000F894DEBF0FBECDBF9A838983809107024F
:102CC000880F0E941D0384EF0E9442038EE40E943D
:102CD00042030E946A038FEB9DE50197F1F700C064
:102CE000000080910702880F0E941D0388E80E945F
:102CF00042030E946A0380910702880F8F5F0E943F
:102D00001D030E945403E82E0E945403F82E0E94D3
:102D10005403182F0E945403082F0E9454038C83DD
:102D20000E9454038B830E9454038F8B0E94540390
:102D3000888F0E945403898F0E9454038A8F0E94B7
:102D400054038B8F0E9454038C8F0E9454038D8FE9
:102D50000E9454038E8F0E9454038C870E94540358
:102D60008D870E945403882E0E945403982E0E943F
:102D700054038F8F0E94540388A30E94540389A395
:102D80000E9454038AA30E9454038BA30E945403FD
:102D90008CA30E9454030E945F030E946A038091E7
:102DA0000702880F0E941D0382EF0E94420381EEFA
:102DB0000E9442030E946A0380910702880F8F5F7E
:102DC0000E941D030E9454030E9454030E94540356
:102DD0000E9454030E9454030E9454030E9454030F
:102DE0000E945F030E946A03A981BA81D4964D9123
:102DF0005D916D917C91D797DB01CA01689413F8BE
:102E0000B595A795979587951694D1F7E981FA819D
:102E100084AB95ABA6ABB7AB8F2D90E0982F8827EE
:102E20008E0D911DA0E0B0E0C52ED62EE72EFF241A
:102E3000E7FCFA94C81AD90AEA0AFB0A689416F859
:102E400075956795579547951694D1F7880F991FF3
:102E5000AA1FBB1F9A01AB01281B390B4A0B5B0B46
:102E6000A02FB0E0BA2FAA27A10FB11D0E94FD1F0D
:102E70002B013C01032E3BE07594679457944794D3
:102E80003A95D1F7302DA7019601C701B6010E94EE
:102E90008E1F9B01AC01012E1CE05595479537957F
:102EA00027951A95D1F7102D0B81A02FB0E0BA2FDE
:102EB000AA271C81A10FB11D0E94FD1FDC01CB01BF
:102EC000072E7EE0B595A795979587957A95D1F7CA
:102ED000702D480E591E6A1E7B1E448A558A668ACA
:102EE000778AD301C201880F991FAA1FBB1F880FC1
:102EF000991FAA1FBB1F840D951DA61DB71D8058C5
:102F00009F4FAF4FBF4F692F7A2F8B2F992787FD88
:102F10009A95A0D76CD7E981FA8160837183828307
:102F2000938380A991A9A2A9B3A98C019D0168945A
:102F300013F835952795179507951694D1F70D83B6
:102F40001E832F83388700AB11AB22AB33AB7301E9
:102F50006201FF0CCC08DC2C7601242D352D462D8A
:102F6000572D6C2D7C2D8C2D9C2D345F41405109AB
:102F700061097109810991092DA73DA3242E352EE0
:102F8000462E572E682E792EA22EB32EC42ED52E65
:102F9000E62EF72E082F192F0E9407202B833C8343
:102FA00049875A876B877C8B8D8B9E8B492D50E090
:102FB000542F4427480D511DA22EB32EC984DA8404
:102FC000EB84FC880D891E89242F352F40E050E0CA
:102FD00060E070E080E090E00E9407202E873F874D
:102FE000488B598B6A8B7B8B882E992EBD854B2FF6
:102FF00050E0542F4427EC854E0F511DADA4BDA0C9
:10300000C22CD32CE42CF52C062D172D242F352F74
:1030100040E050E060E070E080E090E0F8D701E14F
:103020000E942821AE84BF84C888D988EA88FB889A
:10303000082D192D0E945F212C873D874E875F87C1
:10304000688B798B8A8B9B8BFA8D4F2F50E0542F96
:103050004427098D400F511DADA4BDA0C22CD32C17
:10306000E42CF52C062D172D242F352F40E050E0B1
:1030700060E070E080E090E0CAD70CE00E94282178
:10308000422E532E642E752E862E972E8A8F998F60
:103090001C8D412F50E0542F44272B8D420F511D82
:1030A000AB80BC80C984DA84EB84FC880D891E89DE
:1030B000242F352F40E050E060E070E080E090E0A9
:1030C000A6D708E00E944121A42CB52CC62CD72CF1
:1030D000E82CF92C0A8D198D0E945F2170588F4FB2
:1030E0009F4FA88D2A2E312C322C2224BF892B0EE3
:1030F000311CA22CB32CC12CD12CE12CF12C00E0E2
:1031000010E085D7622E732E842E952E6A877987DC
:103110008B839C8380E090E0A0E1B0E00D811E8174
:103120002F813885801B910BA20BB30B6C017D01A5
:10313000FF0CCC08DC2C7601282F392F4A2F5B2F6F
:103140006C2D7C2D8C2D9C2D0FE10E942821222E90
:10315000332E442E552EB62FA72FF82FE92F1E8D74
:10316000A12EB12CBA2CAA242D8DA20EB11C2A2D71
:103170003B2D40E050E060E070E080E090E003E252
:103180000E942821AC84BD84CE84DF84E888F9883D
:103190000A891B890E945F21A22EB32EC42ED52E30
:1031A000E62EF72E082F192F222D332D442D552DC5
:1031B0006B2F7A2F8F2F9E2F0E9468210F2EF5E301
:1031C000AF2EF02D0F2EFCE0BF2EF02DC12CD12CF8
:1031D000E12CF12C00E010E01AD7222E332E442EE1
:1031E000552EB62FA72FF82FE92F262D372D482D36
:1031F000592D6A8579858B819C8101E20E9441214C
:10320000A22EB32EC42ED52EE62EF72E082F192F60
:10321000222D332D442D552D6B2F7A2F8F2F9E2F3E
:1032200049D72D873C874D835B836C8379878A8759
:103230009B870DE00E944121922E832E742E652ED5
:10324000562E472E382E292E3CA1432F50E0542FC6
:1032500044276BA1460F511DA92CB82CC72CD62C86
:10326000E52CF42C032D122D242F352F40E050E0B7
:1032700060E070E080E090E0CAD6C9D609E10E9423
:103280004121AD84BC84CD80DB80EC80F9840A854B
:103290001B850E945F21222E332E442E552E662E32
:1032A000772E882E992E7AA1472F50E0542F44274D
:1032B00089A1480F511D242F352F40E050E060E0D8
:1032C00070E080E090E0A3D603E1DBD7A22EB32E1E
:1032D000C42ED52EE62EF72E082F192F222D332D92
:1032E000442D552D662D772D882D992DE8D708E092
:1032F000C8D7A22EB32EC42ED52EE62EF72E982E8A
:10330000E92FA8A18A2F90E0982F8827BF8D8B0FD7
:10331000911D8C0120E030E040E050E0BA018DA327
:103320001EA32FA338A749A75AA76BA77CA7282FAE
:10333000312F40E050E060E070E080E090E004E099
:1033400087D7092D1E2FBBD7A12C0F2EF4E6BF2E39
:10335000F02DC12CD12CE12CF12C00E010E0AAD6EC
:10336000A981BA8150962C93509751963C935197CE
:1033700052964C93529753965C93609107028DEF4F
:1033800025DCA0E0B0E0E981FA8180AF91AFA2AF87
:10339000B3AF84879587A687B78780910602880F89
:1033A0000E941D0384EF0E9442038EE40E944203A8
:1033B0000E946A038FEB9DE50197F1F700C00000C2
:1033C00080910602880F0E941D0388E80E94420334
:1033D0000E946A0380910602880F8F5F0E941D037E
:1033E0000E945403E82E0E945403F82E0E945403B6
:1033F000182F0E945403082F0E9454038C830E94AC
:1034000054038B830E9454038F8B0E945403888F34
:103410000E945403898F0E9454038A8F0E94540390
:103420008B8F0E9454038C8F0E9454038D8F0E94B7
:1034300054038E8F0E9454038C870E9454038D87FF
:103440000E945403882E0E945403982E0E94540315
:103450008F8F0E94540388A30E94540389A30E9463
:1034600054038AA30E9454038BA30E9454038CA389
:103470000E9454030E945F030E946A038091060227
:10348000880F0E941D0382EF0E94420381EE0E947A
:1034900042030E946A0380910602880F8F5F0E9498
:1034A0001D030E9454030E9454030E9454030E946F
:1034B00054030E9454030E9454030E9454030E9428
:1034C0005F030E946A03E981FA81E05CFF4F40815B
:1034D000518162817381DB01CA01689413F8B5954B
:1034E000A795979587951694D1F780839183A283AA
:1034F000B3838F2D90E0982F88278E0D911DA0E02B
:10350000B0E0C52ED62EE72EFF24E7FCFA94C81AA9
:10351000D90AEA0AFB0A689416F8759567955795D3
:1035200047951694D1F7880F991FAA1FBB1F9A01C0
:10353000AB01281B390B4A0B5B0BA02FB0E0BA2F55
:10354000AA27A10FB11D59D52B013C01032E3BE049
:1035500075946794579447943A95D1F7302DA70105
:103560009601C701B601DAD49B01AC01012E1CE023
:1035700055954795379527951A95D1F7102D0B81BD
:10358000A02FB0E0BA2FAA271C81A10FB11D35D5FD
:10359000DC01CB01072E7EE0B595A7959795879521
:1035A0007A95D1F7702D480E591E6A1E7B1EA9818F
:1035B000BA819C964D925D926D927C929F97D301B9
:1035C000C201880F991FAA1FBB1F880F991FAA1F2E
:1035D000BB1F840D951DA61DB71D80589F4FAF4F73
:1035E000BF4F692F7A2F8B2F992787FD9A9532D459
:1035F000FED3E981FA81608F718F828F938F84ADC2
:1036000095ADA6ADB7AD8C019D01689413F83595C5
:103610002795179507951694D1F70D831E832F8351
:10362000388704AF15AF26AF37AF73016201FF0CC7
:10363000CC08DC2C7601242D352D462D572D6C2DF4
:103640007C2D8C2D9C2D345F4140510961097109FD
:10365000810991092DA73DA3242E352E462E572EE4
:10366000682E792EA22EB32EC42ED52EE62EF72E3E
:10367000082F192FCCD42B833C8349875A876B871B
:103680007C8B8D8B9E8B492D50E0542F4427480D09
:10369000511DA22EB32EC984DA84EB84FC880D89D7
:1036A0001E89242F352F40E050E060E070E080E07C
:1036B00090E0ADD42E873F87488B598B6A8B7B8BEC
:1036C000882E992EBD854B2F50E0542F4427EC8532
:1036D0004E0F511DADA4BDA0C22CD32CE42CF52C53
:1036E000062D172D242F352F40E050E060E070E0CC
:1036F00080E090E08CD401E1ABD5AE84BF84C88873
:10370000D988EA88FB88082D192DD9D52C873D87C3
:103710004E875F87688B798B8A8B9B8BFA8D4F2FB7
:1037200050E0542F4427098D400F511DADA4BDA07A
:10373000C22CD32CE42CF52C062D172D242F352F3D
:1037400040E050E060E070E080E090E060D40CE0A9
:103750007FD5422E532E642E752E862E972E8A8F5D
:10376000998F1C8D412F50E0542F44272B8D420FF1
:10377000511DAB80BC80C984DA84EB84FC880D8940
:103780001E89242F352F40E050E060E070E080E09B
:1037900090E03DD408E075D5A42CB52CC62CD72CD0
:1037A000E82CF92C0A8D198D8AD570588F4F9F4FB0
:1037B000A88D2A2E312C322C2224BF892B0E311CAD
:1037C000A22CB32CC12CD12CE12CF12C00E010E068
:1037D0001ED4622E732E842E952E6A8779878B8352
:1037E0009C8380E090E0A0E1B0E00D811E812F81FC
:1037F0003885801B910BA20BB30B6C017D01FF0C74
:10380000CC08DC2C7601282F392F4A2F5B2F6C2D0A
:103810007C2D8C2D9C2D0FE11BD5222E332E442E7A
:10382000552EB62FA72FF82FE92F1E8DA12EB12CC4
:10383000BA2CAA242D8DA20EB11C2A2D3B2D40E0BE
:1038400050E060E070E080E090E003E201D5AC84FD
:10385000BD84CE84DF84E888F9880A891B892FD546
:10386000A22EB32EC42ED52EE62EF72E082F192FFA
:10387000222D332D442D552D6B2F7A2F8F2F9E2FD8
:1038800027D50F2EF5E3AF2EF02D0F2EFCE0BF2E27
:10389000F02DC12CD12CE12CF12C00E010E0B7D39D
:1038A000222E332E442E552EB62FA72FF82FE92F78
:1038B000262D372D482D592D6A8579858B819C8140
:1038C00001E2DFD4A22EB32EC42ED52EE62EF72E83
:1038D000082F192F222D332D442D552D6B2F7A2F84
:1038E0008F2F9E2FE7D32D873C874D835B836C837F
:1038F00079878A879B870DE0C4D4922E832E742EFD
:10390000652E562E472E382E292E3CA1432F50E0EF
:10391000542F44276BA1460F511DA92CB82CC72C3E
:10392000D62CE52CF42C032D122D242F352F40E01E
:1039300050E060E070E080E090E069D368D309E196
:10394000A0D4AD84BC84CD80DB80EC80F9840A8572
:103950001B85B5D4222E332E442E552E662E772E5F
:10396000882E992E7AA1472F50E0542F442789A101
:10397000480F511D242F352F40E050E060E070E0EB
:1039800080E090E044D303E17CD4A22EB32EC42E79
:10399000D52EE62EF72E082F192F222D332D442D4C
:1039A000552D662D772D882D992D89D408E069D461
:1039B000A22EB32EC42ED52EE62EF72E982EE92F4A
:1039C000A8A18A2F90E0982F8827BF8D8B0F911D7B
:1039D0008C0120E030E040E050E0BA018DA31EA34E
:1039E0002FA338A749A75AA76BA77CA7282F312F49
:1039F00040E050E060E070E080E090E004E028D437
:103A0000092D1E2F5CD4A12C0F2EF4E6BF2EF02D15
:103A1000C12CD12CE12CF12C00E010E04BD3A9817A
:103A2000BA8198962C93989799963C9399979A96E1
:103A30004C939A979B965C93609106028DEFC6D843
:103A4000E981FA81EC5BFF4FA0E0B0E080839183D5
:103A5000A283B383E981FA8184A395A3A6A3B7A324
:103A6000AD960FB6F894DEBF0FBECDBFDF91CF91FC
:103A70001F910F91FF90EF90DF90CF90BF90AF908C
:103A80009F908F907F906F905F904F903F902F907E
:103A900008951F93CF93DF93EC0180910702880F65
:103AA0000E941D0382EF0E9442030E946A038091DC
:103AB0000702880F8F5F0E941D030E945F03182F6B
:103AC0000E946A03197F80910702880F0E941D03DC
:103AD00082EF0E944203812F81600E9442030E9474
:103AE0006A0380910702880F0E941D0385EF0E94E0
:103AF00042030E946A0380910702880F8F5F0E9431
:103B00001D030E945F03182F0E946A031E76809196
:103B10000702880F0E941D0385EF0E944203812F38
:103B20008C660E9442030E946A0380910702880FFC
:103B30000E941D0384EF0E9442038EE40E94420310
:103B40000E946A0380910702880F0E941D0387EF7D
:103B50000E9442030E946A038FEB9DE50197F1F7F3
:103B600000C0000080910702880F8F5F0E941D0334
:103B70000E9454030E9454030E9454030E94540361
:103B80000E9454030E9454030E945403182F0E9461
:103B90005F030E946A03609107028AEF39D86CAB19
:103BA0007DAB8EAB9FAB6091070287EF31D868ABDE
:103BB00079AB8AAB9BAB812F90E0A0E0B0E088AFFF
:103BC00099AFAAAFBBAF80910602880F0E941D0378
:103BD00082EF0E9442030E946A0380910602880FCE
:103BE0008F5F0E941D030E945F03182F0E946A03CB
:103BF000197F80910602880F0E941D0382EF0E94A8
:103C00004203812F81600E9442030E946A038091D7
:103C10000602880F0E941D0385EF0E9442030E9446
:103C20006A0380910602880F8F5F0E941D030E9425
:103C30005F03182F0E946A031E7680910602880F88
:103C40000E941D0385EF0E944203812F8C660E9413
:103C500042030E946A0380910602880F0E941D039E
:103C600084EF0E9442038EE40E9442030E946A0392
:103C700080910602880F0E941D0387EF0E94420375
:103C80000E946A038FEB9DE50197F1F700C00000E9
:103C900080910602880F8F5F0E941D030E945403CB
:103CA0000E9454030E9454030E9454030E94540330
:103CB0000E9454030E945403182F0E945F030E9425
:103CC0006A03609106028AEF0E940816FE01E05C1A
:103CD000FF4F60837183828393836091060287EF35
:103CE0000E9408166CAF7DAF8EAF9FAFFE01EC5BFC
:103CF000FF4F812F90E0A0E0B0E080839183A2830A
:103D0000B383CE010E944216DF91CF911F91089597
:103D1000CF93DF93EC0188819981AA81BB81892BA4
:103D20008A2B8B2B11F4CE01B4DE88819981DF912F
:103D3000CF910895CF93DF93EC0188899989AA895F
:103D4000BB89892B8A2B8B2B11F4CE01A2DE8889AB
:103D50009989DF91CF910895CF93DF93EC012C8166
:103D60003D814E815F81688579858A859B85A0E04C
:103D7000B8D211F4CE018DDE8C859D85DF91CF9177
:103D80000895CF93DF93EC01888D998DAA8DBB8D1B
:103D9000892B8A2B8B2B11F4CE017BDE888D998D9C
:103DA000DF91CF910895CF93DF93EC0188A599A57A
:103DB000AAA5BBA5892B8A2B8B2B11F4CE0169DE1A
:103DC00088A599A5DF91CF910895CF93DF93EC015A
:103DD0008CA19DA1AEA1BFA1892B8A2B8B2B11F4A5
:103DE000CE0157DE8CA19DA1DF91CF91089504D023
:103DF0006894B1118DC0089570D088F09F5790F0ED
:103E0000B92F9927B751A0F0D1F0660F771F881FFF
:103E1000991F1AF0BA95C9F712C0B13081F077D066
:103E2000B1E0089574C0672F782F8827B85F39F004
:103E3000B93FCCF3869577956795B395D9F73EF45E
:103E400090958095709561957F4F8F4F9F4F089506
:103E5000E89409C097FB3EF4909580957095619524
:103E60007F4F8F4F9F4F9923A9F0F92F96E9BB27DA
:103E70009395F695879577956795B795F111F8CF56
:103E8000FAF4BB0F11F460FF1BC06F5F7F4F8F4FC1
:103E90009F4F16C0882311F096E911C0772321F0B7
:103EA0009EE8872F762F05C0662371F096E8862F4F
:103EB00070E060E02AF09A95660F771F881FDAF7A6
:103EC000880F9695879597F9089557FD9058440F58
:103ED000551F59F05F3F71F04795880F97FB991F69
:103EE00061F09F3F79F08795089512161306140626
:103EF000551FF2CF4695F1DF08C0161617061806B3
:103F0000991FF1CF86957105610508940895E8948D
:103F1000BB2766277727CB0197F90895DB018F939D
:103F20009F936BD0BF91AF91A29F800D911DA39FD6
:103F3000900DB29F900D1124089597FB072E16F453
:103F4000009406D077FD08D0D8D107FC05D03EF408
:103F5000909581959F4F0895709561957F4F089535
:103F6000A1E21A2EAA1BBB1BFD010DC0AA1FBB1F7D
:103F7000EE1FFF1FA217B307E407F50720F0A21BEF
:103F8000B30BE40BF50B661F771F881F991F1A945C
:103F900069F760957095809590959B01AC01BD0186
:103FA000CF010895052E97FB16F400940FD057FD0E
:103FB00005D0D6DF07FC02D046F408C050954095E6
:103FC000309521953F4F4F4F5F4F089590958095C5
:103FD000709561957F4F8F4F9F4F0895A29FB001BD
:103FE000B39FC001A39F700D811D1124911DB29F2D
:103FF000700D811D1124911D0895F0DFA59F900D76
:10400000B49F900DA49F800D911D11240895DF93FE
:10401000CF931F930F939A9DF02D219FF00D8B9DB1
:10402000F00D8A9DE02DF10D039FF00D029FE00D34
:10403000F11D4E9DE00DF11D5E9DF00D4F9DF00DAB
:104040007F936F93BF92AF925F934F93D501C6DF7B
:104050008B01AC01D701C2DFEB01E80FF91FD601DC
:104060001FD02F913F91D601B9DFC60FD71FE81F90
:10407000F91FAF91BF9114D02F913F91AFDFC60FC1
:10408000D71FE81FF91FD601A9DFE60FF71F980118
:10409000BE01CF0111240F911F91CF91DF9108959F
:1040A0009DDF460F571FC81FD91F08F4319608958A
:1040B000689401C0E894F92FF12B0AF027C0A0E022
:1040C000B0E0E4E6F0E293C0092E05941AF479D04A
:1040D000112392F4F0E80F26FFEFE094F09400959E
:1040E0001095B094C094D094A194BF0ACF0ADF0A6F
:1040F000EF0AFF0A0F0B1F0B13D007FC62D0CDB7DE
:10410000DEB7ECE090C0689401C0E8948F929F9273
:10411000CF93DF9305D0DF91CF919F908F9008953B
:1041200088249924F401E401B0E49F93AA279A1506
:104130008B049C04ED05FE05CF05D007A10798F47C
:10414000AD2FDC2FCF2FFE2FE92D982C892E982F05
:10415000872F762F652F542F432F322F2227B850C9
:1041600031F7BF9127C01B2EBF91BB27220F331FF2
:10417000441F551F661F771F881F991F881C991C95
:10418000EE1FFF1FCC1FDD1FAA1FBB1F8A149B043D
:10419000EC05FD05CE05DF05A007B10748F08A183C
:1041A0009B08EC09FD09CE09DF09A00BB10B2160CA
:1041B0001A94E1F62EF49401AF01BE01CD01000C7A
:1041C000089560957095809590953095409550959F
:1041D00021953F4F4F4F5F4F6F4F7F4F8F4F9F4FF7
:1041E00008952F923F924F925F926F927F928F929B
:1041F0009F92AF92BF92CF92DF92EF92FF920F9376
:104200001F93CF93DF93CDB7DEB7CA1BDB0B0FB67F
:10421000F894DEBF0FBECDBF19942A88398848882C
:104220005F846E847D848C849B84AA84B984C884D2
:10423000DF80EE80FD800C811B81AA81B981CE0FC9
:10424000D11D0FB6F894DEBF0FBECDBFED010895AE
:104250000F93083090F0982F872F762F652F542FCB
:10426000432F322F22270850F4CF220F331F441F31
:10427000551F661F771F881F991F0A95B2F70F9168
:10428000089597FB10F8169400080F93083098F0E3
:104290000850232F342F452F562F672F782F892F23
:1042A000902DF4CF059497958795779567955795B9
:1042B0004795379527950A95AAF70F9108952A0DE6
:1042C0003B1D4C1D5D1D6E1D7F1D801F911F0895A0
:1042D0002A193B094C095D096E097F09800B910B76
:1042E00008950024A7FD00942A17300540055005C5
:1042F00060057005800590050895AA1BBB1B51E160
:1043000007C0AA1FBB1FA617B70710F0A61BB70B45
:10431000881F991F5A95A9F780959095BC01CD01EA
:104320000895EE0FFF1F881F8BBF0790F691E02DB9
:1043300019940F931F93CF93DF938230910510F45C
:1043400082E090E0E0915B08F0915C0820E030E0D2
:10435000A0E0B0E0309719F14081518102811381D2
:1043600048175907C8F08417950769F4109731F07A
:1043700012960C93129713961C9327C000935B0818
:1043800010935C0822C02115310519F0421753071C
:1043900018F49A01BD01EF01DF01F801DBCF21150F
:1043A0003105F9F0281B390B2430310580F48A815E
:1043B0009B816115710521F0FB019383828304C009
:1043C00090935C0880935B08FE01329644C0FE0126
:1043D000E20FF31F8193919322503109398328838F
:1043E0003AC02091590830915A08232B41F420916A
:1043F00002023091030230935A0820935908209109
:104400000002309101022115310541F42DB73EB76C
:104410004091040250910502241B350BE09159088C
:10442000F0915A08E217F307A0F42E1B3F0B281750
:10443000390778F0AC014E5F5F4F2417350748F01D
:104440004E0F5F1F50935A084093590881939193E0
:1044500002C0E0E0F0E0CF01DF91CF911F910F911A
:104460000895CF93DF93009709F481C0FC01329740
:1044700013821282A0915B08B0915C08109781F4BE
:1044800020813181820F931F2091590830915A0861
:104490002817390751F5F0935A08E093590867C077
:1044A000ED0120E030E0CE17DF0740F44A815B8168
:1044B0009E0141155105F1F0EA01F5CFD383C28386
:1044C00040815181840F951FC817D90759F48881FD
:1044D0009981840F951F0296918380838A819B81A5
:1044E000938382832115310529F4F0935C08E093CE
:1044F0005B083DC0E901FB83EA8349915991C40FF0
:10450000D51FEC17FD0761F480819181840F951F01
:104510000296E90199838883828193819B838A83B0
:10452000E0E0F0E012968D919C911397009719F0BE
:10453000FD01DC01F7CF8D919C9111979D012E5FBC
:104540003F4F820F931F2091590830915A08281726
:10455000390769F4309729F410925C0810925B08CF
:1045600002C013821282B0935A08A0935908DF91B7
:10457000CF9108959111089581568A5108F480527F
:1045800085580895FB01DC010D900020E9F7119793
:1045900001900D920020E1F70895FB01DC014150EC
:1045A000504048F001900D920020C9F701C01D92C3
:1045B00041505040E0F70895DC01CB01FC01F9992E
:1045C000FECF06C0F2BDE1BDF89A319600B40D925F
:1045D00041505040B8F70895A8E1B0E042E050E003
:1045E000EDCFDC01A40FB51F4150504040F0CB018E
:1045F000840F951F2E9105D041505040D8F7089553
:10460000262FF999FECF92BD81BDF89A019700B48B
:10461000021639F01FBA20BD0FB6F894FA9AF99A2B
:084620000FBE0895F894FFCFCE
:1046280000005D0820007677556C747261736F6EB8
:1046380069633B200000000000000000000000004B
:104648000000000000000000000000000000000062
:1046580000000000000000000000576561746865F4
:104668007273656E736F72315F50726573733B203E
:104678000000000000000000000000000000000032
:104688000000000000000000000000005765617491
:1046980068657273656E736F72315F54656D703BD8
:1046A80020000000000000000000000000000000E2
:1046B8000000000000000000000000000000576536
:1046C800617468657273656E736F72315F48756D7A
:1046D8003B20000000000000000000000000000077
:1046E80000000000000000000000000000000000C2
:1046F8005765617468657273656E736F72325F5067
:10470800726573733B200000000000000000000089
:104718000000000000000000000000000000000091
:1047280000005765617468657273656E736F7232E5
:104738005F54656D703B2000000000000000000021
:104748000000000000000000000000000000000061
:10475800000000005765617468657273656E736F59
:1047680072325F48756D3B200000000000000000B9
:104778000000000000000000000000000000000031
:10478800000000000000202A2A2A206D6D6320699D
:104798006E6974206F7220666174206C6F6164208A
:1047A8006661696C6564202A2A2A200000202A2A6A
:1047B8002A2073746172746C79202A2A2A200000D6
:1047C800202A2A2A206F6B656C79202A2A2A200041
:1047D80000202A2A2A206265666F726520696E6E3B
:1047E8006572207772697465202A2A2A20000020C1
:1047F8002A2A2A20616674657220696E6E657220A5
:1048080077726974652066696C65206F70656E20C3
:104818002A2A2A200000202A2A2A20616674657222
:1048280020696E6E65722077726974652066696C9E
:1048380065207365656B202A2A2A200000202A2A11
:104848002A20616674657220696E6E6572207772BF
:104858006974652066696C65207772697465202AB9
:104868002A2A200000202A2A2A20616674657220DC
:10487800696E6E6572207772697465202A2A2A200B
:104888000000202A2A2A206E6F74206578697374C4
:104898006C79202A2A2A200000202A2A2A206265E8
:1048A800666F7265207772697465202A2A2A20004B
:1048B80000202A2A2A20616674657220777269743A
:1048C80065202A2A2A200000212121494D504F52D3
:1048D80054414E542121212D3E000049443B44615E
:1048E800746554696D653B4C4449443B4469737431
:1048F800616E6365000049443B4461746554696DA9
:10490800653B4D6F64756C653B4572726F72000054
:1049180049443B4461746554696D653B4D6F6475EA
:104928006C653B56616C7565000031000D202F2FBA
:104938002F2072656164696E67206E6F77203D3D38
:104948003D200D000D203D3D3D2072656164696E7E
:104958006720656E64202F2F2F200D000D204C49F5
:104968004E45204E4F5420464F554E44202121217C
:104978000D003B4441544554494D453B004C442EA1
:104988004353560045442E4353560047442E435341
:1049980056004552524F5220426174746572790034
:1049A800536572766F3B206572726F722062617414
:1049B80074657279004552524F5220447269766587
:1049C80000536572766F3B206572726F7220647255
:1049D800697665004552524F5220566F6C74616774
:1049E8006500536572766F3B206572726F72207630
:1049F8006F6C74616765006E6F204552524F5200AC
:0C4A080065787472616472697665000064
:00000001FF
